:100000000C9419020C9451020C9451020C9451025C
:100010000C9451020C9451020C9451020C94510214
:100020000C9451020C9451020C94ED280C94C129AB
:100030000C9484230C9451020C9451020C945102A0
:100040000C9451020C9451020C9451020C9416170A
:100050000C9451020C940B240C9451020C945102F8
:100060000C9451020C9451020C9451020C945102C4
:100070000C9451020C9451020C9451020C945102B4
:100080000C9451020C9451020C9451020C945102A4
:100090000C9451020C9451020C9451020C94510294
:1000A0000C9451020C9451020C9451020763423695
:1000B000B79BD8A71A39685618AEBAAB558C1D3CF9
:1000C000B7CC5763BD6DEDFD753EF6177231BF00BD
:1000D0000000803F08000000BE922449123EABAAF7
:1000E000AA2ABECDCCCC4C3E00000080BEABAAAA52
:1000F000AA3E00000000BF000000803F000000009A
:1001000000084178D3BB4387D1133D190E3CC3BDD2
:100110004282AD2B3E68EC8276BED98FE1A93E4C7F
:1001200080EFFFBE01C4FF7F3F0000000000167C8F
:100130001E001F00200021002200230024002500B3
:10014000260027002D002E0031002A002B0014006D
:100150001A000800150017001C0018000C001200FF
:1001600013002F00300001000000390004001600C9
:10017000070009000A000B000D000E000F003300FD
:100180003400310028000000E10064001D001B0065
:100190000600190005001100100036003700380075
:1001A000E50052410000E000E300E2000000000032
:1001B00000002C00000000000000E6002152215247
:1001C000E400000001003A003B003C003D003E001E
:1001D0003F00400041004200430044004500010050
:1001E000007C427C4B7C4C7C457C437C01000100C4
:1001F00001005200010001000100010001000000A7
:10020000827492740100010001000100010050009D
:1002100051004F00010001000100010000008A743C
:100220008D748E748F7401000100010001000100C3
:10023000010001000100010001000000E000E300F6
:10024000E2000000000000002C00000000000000A0
:10025000E60001000100E4000000000000000000D2
:1002600000002A2B28000000000000000000000011
:10027000000000000029000000002C1E3420212274
:1002800024342627252E362D3738271E1F202122DD
:10029000232425263333362E37381F040506070856
:1002A000090A0B0C0D0E0F10111213141516171846
:1002B000191A1B1C1D2F3130232D35040506070884
:1002C000090A0B0C0D0E0F10111213141516171826
:1002D000191A1B1C1D2F3130354C00000000000086
:1002E000000000000000000000000000000000000E
:1002F00000000000000000000000000000007E0F71
:1003000000D4FFFFFFC700000078100350006C000E
:10031000610069006E003600300000000E034500E9
:100320007600790064003100330000000403090402
:1003300009025B00030100A0FA09040000010301A7
:100340000100092111010001224000070581030875
:10035000000109040100020300000009211101004D
:100360000122220007058203200001070503032064
:10037000000109040200010300000009211101002D
:10038000012232000705840320000112010002004F
:10039000000008054760010100010200010660FF3E
:1003A0000961A1010962150026FF009520750881E9
:1003B000020963150026FF00952075089102C0050B
:1003C000010980A101850319012AB700150126B78B
:1003D00000950175108100C0050C0901A10185047B
:1003E00019012AA002150126A002950175108100AD
:1003F000C005010906A101050719E029E715002537
:10040000019508750181029501750881010507199B
:100410000029FF150026FF009506750881000508D4
:100420001901290595057501910295017503910141
:10043000C00011241FBECFEFDAE0DEBFCDBF04B68F
:1004400003FE18C08091CC059091CD05A091CE05FA
:10045000B091CF058730904BA740B04B59F4109224
:10046000CC051092CD051092CE051092CF05E0E09C
:10047000F8E3099514E0A0E0B1E0ECE1F2E602C097
:1004800005900D92A237B107D9F725E0A2E7B4E0B5
:1004900001C01D92AC3CB207E1F70E9428110C94F8
:1004A000AD300C94000082E008958230B8F46530DD
:1004B000A8F44F3098F450E09FE0699F400D511D23
:1004C0001124FA019BE4899FE00DF11D1124EE0F28
:1004D000FF1FE25DFE4F85919491089580E090E0CA
:1004E000089581E0089581E008950E9473020895BF
:1004F00008950E9478020895A5E0B0E0E2E8F2E0F5
:100500000C94852F49835A833091790489819A818B
:10051000311119C0662399F0222389F00E94220824
:10052000182F682F89819A810E94FE0769817A813C
:10053000812F0E949F0E2596E3E00C94A12F0E942C
:100540001008182FF3CF0E94220869817A81F1CF19
:10055000FC01262F408151816281738184810E9438
:100560007C02089581E00895CF93DF93EC0160E071
:100570000E94A802BE010E947902DF91CF910895E6
:10058000E1E0F0E0DF0102C0AA0FBB1F6A95E2F7CD
:10059000BD01DF0102C0AA0FBB1F4A95E2F76A2B1B
:1005A00001C0EE0F2A95EAF7962F9823961302C002
:1005B0008E2B0895E0958E230895242F462F682FC3
:1005C000809198040E94C0020E94600708950E94D2
:1005D000CD0F08950E94D10F08950895CF93DF9312
:1005E0000E94F4060E949E170E94E423EC0140E062
:1005F00063E070E084E091E00E945E130E94ED02EF
:10060000CE010E94FC238A3F910538F00E94FA1225
:100610000E94D221DF91CF9108958FE99FE0019749
:10062000F1F700C00000ECCF0E94EE020E942F24E0
:1006300008950E94EE020E94532408950F931F9381
:10064000CF93DF938C0161E00E94A802EC01B80116
:100650000E949D12811106C080E0DF91CF911F9111
:100660000F910895B801CE010E94901F8823A1F335
:10067000B801CE010E940E1A882371F3B801CE0191
:100680000E947502882341F3B801CE010E945211E5
:10069000882311F3B801CE010E9443188823E1F2A8
:1006A000B801CE010E9439228823B1F2B801CE01EF
:1006B0000E94F11B882381F2B801CE010E94641FC1
:1006C000882351F2F8018281882361F0C330FCE76E
:1006D000DF07E9F058F4C115ECE7DE07A9F0C130F7
:1006E000DC47B9F0C8010E947102B7CFCB358CE767
:1006F000D807A9F0CC35ECE7DE0771F0CA35DC4746
:1007000089F70E941F0CEECF0E941403A5CF0E9410
:10071000270C0E941903A0CF0E94150CE3CF0E9462
:10072000230CE0CF0E9460230E94BE030E94FA12B5
:1007300008950E94C2030E946523089508950E94AF
:100740009E03089581E008950895CF93DF93D82FF5
:100750000E94A203C82F882319F08D2F0E94A403A2
:100760008C2FDF91CF9108950895CF93C82F0E94C9
:100770009F038C2F0E94A503CF91089580E00E94D3
:10078000B50308950E9487220E94B5030895CF9370
:100790000E948722C82F809174048C1779F0C0932F
:1007A00074040E94F0236093750470937604809320
:1007B0007704909378048C2F0E94B503CF9108950D
:1007C000ABE0B0E0E6EEF3E00C94862F4F83588761
:1007D00069877A878B8761110E94600B1E821D8258
:1007E00085E0FE013796DE01119601900D928A9503
:1007F000E1F78C819D81892B61F449815A816B815C
:100800007C818D819E810E94890A2B96E2E00C9466
:10081000A22F89819A8189238F3F79F3CE01019696
:100820000E94B2028111E9CFF0CFFC018081918159
:100830000E944F080895CF93C82F8823B9F08CEFFA
:100840008C0F813AA8F46C2F80911C0190911D01AE
:100850000E94FB22882329F08C2F0E94200B0E94EB
:10086000810B8C2F0E94180B0E94810BCF91089551
:1008700080E28C0F883048F4C77081E001C0880F97
:10088000CA95EAF70E94430BEFCFEBE5EC0FE3309C
:1008900040F4F0E0EA5EFB4F808190E00E949F22EE
:1008A000E5CFC85AC93110F7EC2FF0E0EE0FFF1F6B
:1008B000EC51FC4F808191810E94C422D7CF8823C4
:1008C00039F19CEF980F913A28F40E94200B0E9476
:1008D000810B089590E2980F983050F4877091E062
:1008E00001C0990F8A95EAF7892F0E94490BEFCF33
:1008F0009BE5980F933028F490E080E00E949F22BF
:100900000895885A893120F490E080E00E94C42242
:1009100008951F93CF93DF93182FEB010E941B04C0
:10092000209739F4812F0E945F04DF91CF911F91AE
:1009300008958FE99FE00197F1F700C0000021972B
:10094000EFCF70E060E0893311F460E570E00E9461
:1009500089040895882321F00E94430B0E94810B93
:100960000895882321F00E94490B0E94810B08956D
:10097000B0E0A0E0EEEBF4E00C947F2F6C01D62FFA
:10098000C72FFC011281F580F2949FE0F9220E94AA
:10099000390BE82E8823B9F0E12E1123A1F08C2F1A
:1009A000807F803421F080E28D0F8830D0F08091FC
:1009B0004C0582FF16C082E00E94E40B0E94390BB6
:1009C00091E0E82EE926BC2EB2948FE0B822FBE03D
:1009D000FB1508F468C0EB2DF0E0E155FF4C0C94DA
:1009E0005A2FE12CF0CF0C2F0F70C07F11F0029521
:1009F000007F112399F0002359F080E28D0F883099
:100A000010F0D11107C0802F0E94430B0E94810B70
:100A10008D2F41C0802F0E94530BF8CF8D2F0E9445
:100A20005F04002309F43FC080E28D0F883010F08E
:100A3000D11104C0802F0E94490B03C0802F0E9457
:100A4000590B0E94810B2FC00C2F0F70C07FC0323A
:100A500011F00295007FDD2381F0D13009F468C0E8
:100A6000112309F472C0FF2009F468C0F6018581E2
:100A700080FFCECF8F70858361C080914C0582FD51
:100A800033C0112359F0002329F0802F0E94430B1B
:100A90000E94810B80E00E941B0405C080E00E9440
:100AA0005F040111C7CFEB2DE850FF0B349720F402
:100AB0000E9487220E94B503EE2089F00E94350B28
:100AC00080FD0DC0F60112820E942F0B0E9472075A
:100AD000C6010E94B8060E942F0B0E947E07CDB768
:100AE000DEB7E9E00C949B2F112389F0F11006C0CA
:100AF0000E94630B802B0E94AA04D5CF21E0F21242
:100B0000F7CF0E94630B802B0E946A0BCCCFF110B1
:100B100006C00E94770B802F0E94B104C4CF31E041
:100B2000F31609F2802F0E94B1040E94770BBBCF0D
:100B3000112331F085E08F1508F4B5CF802FDBCF7E
:100B400094E09F1508F4AFCFE6CFFF2021F3D9330F
:100B500049F4FFEF27EE33E0F15020403040E1F759
:100B600000C000008D2F0E945F049DCF8C2F8695C2
:100B70008695837069F0813009F095CF8D2F9C2F79
:100B80009370111102C080E090E00E94C4228BCFCC
:100B90008D2F9C2F9370111102C080E090E00E9475
:100BA0009F2281CF8C2F837079F511117CCF4D2F2F
:100BB000429546954770440F440F8D2F8F70042E39
:100BC00001C0880F0A94EAF72D2F2071D4FF07C0C7
:100BD0002FE030E001C0220F4A95EAF72095C69534
:100BE000C695C370822BC23049F058F4C13019F059
:100BF0000E944E0758CF0E94480755CF0E945407C5
:100C000052CF0E9445074FCF8695112311F08C2FAC
:100C10008170882309F447CF4D2F42954695477040
:100C2000440F440F8D2F8F70042E01C0880F0A943B
:100C3000EAF72D2F2071D4FF07C02FE030E001C06C
:100C4000220F4A95EAF72095C695C695C370822B68
:100C5000C23049F058F4C13019F00E949D0723CFEB
:100C60000E94970720CF0E94A3071DCF0E94600714
:100C70001ACFCF70112329F08C2F0E9472078D2F6D
:100C80003ACF8D2F0E94B1048C2F0E947E070BCF8C
:100C9000D23F51F160F4D03FB9F0D13F81F0112340
:100CA00009F449C0F110B4CE8C2F8F7121C0D33F0D
:100CB00011F1D43FA1F780914C0582FD26C08C2F05
:100CC0008F71112311F314C0112349F084E08F15A3
:100CD00008F4E9CE8C2F8F710E948B07E4CE95E04B
:100CE0009F1508F4E0CEF6CF8C2F8F711111CDCF68
:100CF0000E947207D8CE112329F08C2F8F710E9489
:100D00006907D1CE0E946507CECE112349F0CF717D
:100D10008C2F0E94720763E08C2F0E94C60BC3CEFB
:100D200081E00E94E40BE1E0EF1508F0BCCE82E028
:100D30000E94E40BB8CEF1100ACF8C2F8F71A5CF93
:100D40000F931F93CF93DF93EC01688179818A81A0
:100D50000E945A088C010E94A9070E944407B8010A
:100D6000CE010E94B804DF91CF911F910F91089599
:100D7000CF93DF93EC018B819C81892B29F08881B3
:100D8000998189238F3F51F4DF91CF910895CE014E
:100D90000E94A006CE010E94B402F6CFCE010E94AE
:100DA0001E038111F4CF0E94390B882369F38A81D5
:100DB000882351F380914C0582FFE6CF82E00E94A8
:100DC000E40BE2CF90E080E00E949F2290E080E080
:100DD0000E94C4220E94600B0E94810B08950E9411
:100DE000280B0E94E20608950E94500B0E94EF0615
:100DF000089592959F70963091F058F4925F9F708D
:100E0000923058F4803F19F030F4883E30F481E09D
:100E100008959A5FF4CF843FD1F380E00895883E2F
:100E2000B0F3813FD1F7F3CFFC0183819481892B0B
:100E300029F08081918189238F3F11F480E008950A
:100E4000808191810E944F080E94F9060895A5E0D3
:100E5000B0E0EDE2F7E00C94862F2596E2E00C94EA
:100E6000A22FA6E0B0E0E7E3F7E00C94862F2696E9
:100E7000E2E00C94A22F08950E943B0708950E947F
:100E80003C0780939904089508950E943F070895B0
:100E900090919904892B0E943F070895909199049D
:100EA00089230E943F0708959091990489270E9401
:100EB0003F0708950E943B0708950E945A0708952E
:100EC0000E945D0780939804089580E00E94600767
:100ED000089591E001C0990F8A95EAF7892F0E9441
:100EE0006007089521E030E001C0220F8A95EAF7FB
:100EF00080919804822B0E946007089521E030E0E1
:100F000001C0220F8A95EAF72095809198048223E8
:100F10000E946007089521E030E001C0220F8A9509
:100F2000EAF78091980482270E94600708959091C3
:100F30009804892B0E946007089590919804892352
:100F40000E94600708959091980489270E94600785
:100F500008950895262F277091E001C0990F2A95D2
:100F6000EAF723E0769567952A95E1F7FB01EE0F06
:100F7000FF1FE60FF71FE40FF51F50E040E0682F5A
:100F800070E08191DF0111979B01042E02C036951C
:100F900027950A94E2F721702195282729232827ED
:100FA0002C934F5F5F4F4330510559F70895A82F99
:100FB000A77023E0969587952A95E1F7FC01EE0F3F
:100FC000FF1FE80FF91FE60FF71F50E040E080E039
:100FD000219130E00A2E02C0369527950A94E2F757
:100FE00021703327042E01C0220F0A94EAF7822BC6
:100FF0004F5F5F4F4330510559F70895262F9530C5
:1010000070F48F3060F4682F70E08FE0989F600D6F
:10101000711D11244AE754E0822F0E94AA07089507
:10102000292F953068F48F3058F490E06AE774E027
:101030003FE0239F800D911D11240E94D707089542
:1010400080E00895CF92DF92FF920F931F93CF938A
:10105000DF936C010091980480919904082BC7E0FC
:10106000D0E010E0FC2EC8010C2E02C095958795AB
:101070000A94E2F780FD0CC02197A0F7F12C8F2D88
:10108000DF91CF911F910F91FF90DF90CF90089546
:10109000B6018C2F0E94AB0E019771F3F0CFCF9366
:1010A000DF93EC010E942208BE010E94AB0EDF918B
:1010B000CF9108951F93CF93DF93EB019091790423
:1010C000992339F0CB010E944F08DF91CF911F91F6
:1010D0000895882369F0CB010E942208182F682FF9
:1010E000CE010E94FE07BE01812F0E94AB0EEDCF04
:1010F000CB010E941008182FF6CF1F93CF93DF93D8
:10110000C0919A0416E080919B048C1304C0DF9177
:10111000CF911F910895D0E01C9FF0011D9FF00D0D
:101120001124E456FB4F4081518162817381848197
:1011300095810E9431072196C770E5CF4091CC047C
:101140005091CD046091CE047091CF048091D00471
:101150009091D1040E94310708951F93CF93DF939C
:101160008091D104807F09F049C08091CE0488230A
:1011700009F444C080919A04C0919B046091CC040E
:101180007091CD04A091CF04B091D004D62FD72375
:1011900016E0C81799F190E0109711F0DF3F19F4AD
:1011A00001968770F6CF189F9001199F300D11247A
:1011B000F901E456FB4F41814713F2CF40814613BA
:1011C000EFCF42814111ECCF438154814A1B5B0B2D
:1011D000483C510528F78091D1048F70806180933D
:1011E000D104F901EF55FB4F80818F7080618083BE
:1011F0008CEC94E00E94B8060E947D08DF91CF91AC
:101200001F910895A1E1B0E0E8E0F9E00C947E2F91
:101210008C0185E0F801DE011D9601900D928A9502
:10122000E1F7F801E2808CECC82E84E0D82E6091C2
:10123000CF047091D0046115710509F44EC19091ED
:10124000CC042091CD04892F82238F3F09F445C11E
:1012500040815181A380B480F090CE04F501E61B5B
:10126000F70BFF2009F4EAC08091D104382F307FBA
:10127000E83CF10508F0A3C031116DC0FE2C251328
:1012800016C0941314C0E11012C08F708061809357
:10129000D1040E949E08C6010E94B8068091D10424
:1012A000F80185838F2D6196EAE00C949A2FA114A2
:1012B000B10429F0842F85238F3F09F027C180E0F6
:1012C000F82FF170DF2E80FF3CC080919A042091AE
:1012D0009B0436E0821315C04D875E878D859E8501
:1012E0000E944F08292F22952F702230F0F02430D1
:1012F00018F59F70F1F0F8019581907FD1F4D12C11
:101300001EC090E0389FF001399FF00D1124E45683
:10131000FB4F6181651306C06081641303C0628165
:10132000E6120FC001968770D5CF9F7011F0882309
:1013300031F3805E883018F3C8010E94B806FD2C96
:10134000B1CFEE2009F4AECF8091D10481608093BB
:10135000D104F12CA7CF251306C0941304C0F801C3
:10136000EE2009F487C0C8010E941407882319F1F0
:10137000EE2009F18091D104803270F02091CC04EC
:101380003091CD0438872F831986BB86AA868C8737
:10139000CE0107960E94B80686E0F801ACECB4E0F6
:1013A00001900D928A95E1F70E94AD080E949E0877
:1013B000FF24F39477CFC8010E94B806F9CF31110A
:1013C00013C07A2DB98AA88A6E2D89890E942707B1
:1013D0008CEC94E00E94B80686E0F60111928A95A2
:1013E000E9F70E949E08B5CF25130FC094130DC0D6
:1013F000E1100BC0F8018583C8010E94B80686E0A1
:10140000F60111928A95E9F74DCFC8010E941407A1
:10141000882389F2EE2079F28091D104803208F499
:10142000BBCF2091CC043091CD043A8329831B8219
:10143000BD82AC828E83CE010196ACCFE83CF10533
:1014400008F03EC0FE2CEE2009F4B5CF25132AC0CB
:10145000941328C08091D10480FD1BC0982F907FE9
:10146000C1F0F8018583903F31F0982F907F905F15
:101470008F70892B8583C8010E94B80686E0F80129
:10148000ACECB4E001900D928A95E1F70E949E08C1
:1014900009CF86E0F801ACECB4E001900D928A959A
:1014A000E1F700CFC8010E941407811175CF809128
:1014B000D10481608093D104C8010E94B806F2CEA5
:1014C0007A2DB98AA88A6E2D89890E94270786E01D
:1014D000F60111928A95E9F7D9CFEE2009F46BCF86
:1014E000C8010E941407F82E882309F464CF86E00F
:1014F000F801ACECB4E001900D928A95E1F78CEC28
:1015000094E00E9415040E94AD08C0CF81E08E25B2
:10151000D7CEACE0B0E0EFE8FAE00C94852F4F8333
:10152000588769877A878B879C87CE0107960E94A8
:101530000209882369F08A859B85892B39F04F81C0
:101540005885842F85238F3F09F06BC016E05FC05C
:1015500086E0FE013796DE01119601900D928A9584
:10156000E1F78A859B85892B89F38F81988589236B
:101570008F3F61F320919B0430E0C9010196877091
:10158000992740919A044817190671F40E94F406AD
:1015900010929B0410929A0486E0ECECF4E0DF01D8
:1015A0001D928A95E9F7D2CF96E0929FD001939F42
:1015B000B00D1124A456BB4FFE01319601900D923F
:1015C0009A95E1F780939B040E947D08BFCF819F8D
:1015D000C001112484569B4F0E9402098823E9F020
:1015E000E0919A041E9FF0011124E456FB4F4081C4
:1015F000518162817381848195810E94310780913C
:101600009A0490E001968770992780939A048091BC
:101610009A0490919B048913DACF2C96E3E00C9402
:10162000A12F69857A858B859C850E9431078ECF95
:10163000682F80911C0190911D010E943123089513
:10164000682F80911C0190911D010E943423089500
:1016500080911C0190911D010E9437230895809173
:10166000DA0485958595859508958091DA048770CB
:1016700008959091DA04977081E009F480E008956C
:101680008091E50408959091E504892B8093E50409
:10169000089580959091E50498239093E50408952A
:1016A0001092E50408959091E404892B8093E4045A
:1016B000089580959091E40498239093E40408950C
:1016C0001092E40408958091DB04089508950E9427
:1016D000660B089590914C0592FF08C09091DB0431
:1016E000981721F08093DB040E94670B0895809186
:1016F000DB04882329F01092DB0480E00E94670B52
:101700000895CF93DF93E0911C01F0911D0180912A
:10171000E5048083E0911C01F0911D01808190918E
:10172000E404892B80839091DB04992381F0E0917C
:101730001C01F0911D018081892B808380911C0107
:1017400090911D010E94E92281110E94770BC091A6
:101750001C01D0911D0148E050E062ED74E0CE0123
:101760000E941D30892B59F088E0FE01A2EDB4E003
:1017700001900D928A95E1F7CE010E949422DF91AB
:10178000CF91089508950E94C20B089590914C0541
:1017900092FF11C098E0899F90011124622B609301
:1017A000DA040E9472078091DA0485958595859503
:1017B0000E94C30B08950E94720708951092DA04E4
:1017C00080E00E94C30B08959091DA0480958923EC
:1017D0008093DA04282F277091F4282F082E000C0C
:1017E000330B9217130659F090914C0592FF07C0E6
:1017F0008595859585950E947E070E94DE0B08954C
:1018000090914C0592FB222720F9281769F080FB64
:1018100092F990934C0580914B0590914C050E9454
:10182000490C82E00E94E40B089580914C0582FBF4
:10183000882780F991E089270E94000C089581E0B3
:101840000E94000C089580E00E94000C08956FEF44
:101850007FEF90E080E00E946530089590E080E0A6
:101860000E944130873E9E4F19F40E9499190895B5
:1018700080E0089582E090E00E943330089583E094
:1018800090E00E943330089584E090E00E9441305F
:101890000895BC0184E090E00E946530089587E0DF
:1018A00090E00E9433300895682F87E090E00E9416
:1018B00047300895AB01BC018FE090E00E945930A1
:1018C0000895AB01BC0183E190E00E945930089576
:1018D00060E070E0CB010E94610C089560E070E070
:1018E000CB010E945A0C0E94680C089567EE7EEFAF
:1018F00090E080E00E94653060E082E090E00E942D
:10190000473060E083E090E00E94473010929904F5
:1019100060E074E184E090E00E94653060E086E081
:1019200090E00E9447306FEF87E090E00E944730E0
:1019300040E050E0BA0188E090E00E94593060E059
:101940008DE090E00E94473040E050E0BA0188E12D
:1019500090E00E94593060E087E190E00E944730BB
:1019600040E050E0BA018CE190E00E94593070E014
:1019700060E080E290E00E9465300E943A2080E0C2
:101980000E94B2190E94E1190E946E0C08950E94F3
:10199000760C089588E190E00E943B300895AB01F9
:1019A000BC0188E190E00E9459300895682F8EE0D4
:1019B00090E00E94473008950E94F0236093F6045F
:1019C0007093F7048093F8049093F9046093F20401
:1019D0007093F3048093F4049093F50408950895AC
:1019E00008950E94F00C089508950E94F40C089543
:1019F00085E99FE00E947D220E94EF0C0E94F10C7D
:101A0000089581E008950E94010D089508950895B4
:101A10000E94060D0E94070D08950E94B10F0E94BA
:101A2000B4030E94D5130E94552008950E94DB2321
:101A30000E94F1190E9489100E940D0D0E94F50C60
:101A400008950E94DD170E94E61F0895AAE0B0E005
:101A5000ECE2FDE00C947B2F0E949F1028EE822E7A
:101A600024E0922E640110E0F601E190F1906F0104
:101A7000812F0E94D40F1F5F153009F449C0E8166A
:101A8000F90691F38091FA0481FD0E94DD0F0E9416
:101A9000030D782E10E0812F0E94D40F7C01F401F9
:101AA000A190B1904F018A159B0561F1A826BF2432
:101AB00000E0CC24C394D12CC5018C219D21892B1D
:101AC000C1F07720B1F00E831F8321E0C7018C2184
:101AD0009D21892B09F420E028870E94E42381605E
:101AE000782F9A8789874E815F8168858A850E94D1
:101AF000E0030F5FCC0CDD1C0F30F1F6F4013297E0
:101B0000F182E0821F5F153031F60E94DC0C22C0AA
:101B1000E816F90609F0B6CF0E94E4238C01809103
:101B2000E6049091E70408171907A1F08FEF898365
:101B30008A831B820E94E4238160782F9D838C839B
:101B400049815A816B818D810E94E0031093E704E3
:101B50000093E6040E94210D0E94C7032A96EDE03F
:101B60000C94972FCF93DF930E94B00EEC01811558
:101B700020E59207D0F5811530E4930708F086C080
:101B8000803E910518F58D3C910508F07DC0883A9E
:101B9000910570F4853A910508F06EC08130910589
:101BA00001F10097F1F00497E0F4D0E0C0E019C033
:101BB000813C9105D0F7C85AD0E0CC0FDD1FC75E3D
:101BC000DB4F0990D881C02DD4640BC081159042A1
:101BD00008F0A8C0C11581E0D80718F4C83ED105A7
:101BE00020F7CE01DF91CF910895803622E592074C
:101BF00010F5803432E5930708F052C080329245E8
:101C000008F047C0C11582E5D80708F47DC02C2F25
:101C10002695269540E2249F900111248C2F8370F5
:101C2000C1E0D0E002C0CC0FDD1F8A95E2F7C22BE5
:101C3000D32BDD68D6CF803A22E5920760F4803856
:101C400032E5930708F441C0CF71D0E0DC2FCC27F8
:101C5000C46FD06AC6CF803C42E5940708F449C0FF
:101C6000C03E82E5D80708F0A0CFDC2FCC27CC27D8
:101C7000DF71C06FD06AB5CFC55AD0E0C55BDB4F0E
:101C8000C881D0E0D064ADCFD065ABCFDF70D06A73
:101C9000A8CFCF71D0E0DC2FCC27C16FD06AA1CF05
:101CA000282F26952695277080E2289F90011124E1
:101CB0008C2F8370C1E0D0E002C0CC0FDD1F8A956D
:101CC000E2F7C22BD32BDC688CCF282F26952695E4
:101CD000277040E2249F900111248370C1E0D0E07E
:101CE00002C0CC0FDD1F8A95E2F7C22BD32BDA6836
:101CF00078CF8F710E94520FC82FD0E0DC2FCC27F5
:101D0000CC27DF71D0626DCF8C2F8F710E94520F64
:101D100035E0D695C7953A95E1F7CF709C2FEC0149
:101D2000D0695FCF8D2F8F710E94520F90E0982F56
:101D3000882788279F719C012C2BE901E3CF462F30
:101D4000753030F46F3020F4672F0E947C1E0895A8
:101D500090E080E008950E949F0E0E94B20D0895C9
:101D600082389105B9F1B0F48133910509F47DC051
:101D700048F48932910509F46DC08A32910509F45D
:101D80007BC008958533910509F45FC089339105BF
:101D900009F10895833E9105D9F138F4803E91050B
:101DA00029F1823E910579F10895863E9105D9F198
:101DB000873E910509F43EC0843E910541F520918E
:101DC0004C0521FF24C080914B0584FD19C087EE8E
:101DD00090E0089520914B05237009F05AC020919E
:101DE0004C0523FF14C089E290E0089520914B0533
:101DF00020FD38C030914C0530FF09C024FF43C09E
:101E000090E080E0089520914B0522FDF7CF0895E2
:101E100020914B0522FD3AC030914C0530FD39C070
:101E200024FFF5CFEDCF20914B0523FFF0CF24FD0C
:101E3000E7CFCDCF20914B0523FD2EC030914C052F
:101E400031FFEECF84EE90E0089520914B0525FF01
:101E5000DECFC9CF20914B0525FD21C020914C0537
:101E600023FFD5CF89E390E0D2CF20914B0526FF09
:101E7000CECF8AE290E0089520914B0526FFC7CF90
:101E800081E390E0089583EE90E0089582EE90E083
:101E9000089580EE90E0089586EE90E0089585E341
:101EA00090E0089590914B0592FF06C0282F28716D
:101EB0002830F9F4877F846093FF06C0282F2871AB
:101EC0002831F1F4877E846120914C0520FF06C003
:101ED000382F38713830D9F4877F816021FF06C0F0
:101EE000282F28712831D1F4877E816194FD877E67
:101EF0000895282F24712430F9F68B7F8860DCCF79
:101F0000282F2471243101F78B7E8861DDCF382F93
:101F10003171313019F78E7F8860E0CF282F217121
:101F2000213121F78E7E8861E1CF80E008950E9403
:101F3000270C08950E949F108FE39CE90197F1F709
:101F400000C000000E949F1080E00E94D40F80FF1C
:101F500004C00E94970F0E942F2408950E949A0F98
:101F600008950E942E0C811102C00E94C70C0E948D
:101F70003A0C8093FA040E94440C90934C05809391
:101F80004B050E94AE0F0E943F0C0E9445078091B6
:101F900098040E945D07089508950E94CC0F08954B
:101FA00008950E94D00F0895E82FF0E0EE0FFF1F74
:101FB000E95AFA4F808191810895089580EA8A95BF
:101FC000F1F7089500C008950E94DE0F0895F89477
:101FD000E82FE295EF70F0E031A1282F2F7081E01B
:101FE00090E001C0880F2A95EAF7982F90959323E7
:101FF00091A392A1892B82A378940895CF93DF9324
:10200000CDE5D4E089918F3F11F00E94E70F84E085
:10201000C236D807B9F7CEE4D4E089918F3F11F0EA
:102020000E94E70F84E0CD35D807B9F7DF91CF9153
:102030000895AF92BF92DF92EF92FF920F931F939A
:10204000CF93DF938C01D62EC62FD0E0CE01835ADA
:102050009B4F7C01FC0120812F3F09F44DC0F89477
:10206000E22FE295EF70F0E031A12F7081E090E077
:1020700001C0880F2A95EAF7932F982B91A392A17C
:102080008095892382A378940E94E20FEEE4F4E025
:102090004DE554E021E030E0B12CA12C61916F3F7F
:1020A000A9F1A62FA295AF70B0E090968C9190E028
:1020B0006F7002C0959587956A95E2F780FD26C0FE
:1020C000C901A82AB92A220F331F4E175F0731F71B
:1020D000F70180818F3F11F00E94E70F61E0A114AA
:1020E000B10409F460E08D2D0E94E40FCC0FDD1FD8
:1020F000C00FD11FB982A882DF91CF911F910F919C
:10210000FF90EF90DF90BF90AF90089590E080E057
:10211000D8CF0E94FE0F8AE0E7E5F5E0DF01982FB7
:102120001D929A95E9F7EDE4F5E0DF011D928A959D
:10213000E9F785E00E94DA100E94E7020895AAE01C
:10214000B0E0E5EAF0E10C94832F8E010F5F1F4FA2
:102150008AE0F80111928A95E9F7F12C6F2DC801F8
:102160000E941910F394F5E0FF12F8CF4AE050E016
:10217000B8018DE495E00E941D3021E0009709F43C
:1021800020E0892B41F08AE0F801ADE4B5E0019050
:102190000D928A95E1F745E067E575E08DE495E0FD
:1021A0000E94DB10182F0E94EA02812F2A96E5E098
:1021B0000C949F2F0895CF92DF92EF92FF921F937E
:1021C000CF93DF936C017B01C42F222349F081E080
:1021D0008093FD040E94E4239093FC048093FB040D
:1021E0001091FD0411110AC010E0812FDF91CF91F1
:1021F0001F91FF90EF90DF90CF9008958091FB04A6
:102200009091FC040E94FC23059770F3D0E0CC0F62
:10221000DD1FAE01B601C7010E941D30892B41F0C0
:10222000AE01B601C7010E942A301092FD04DDCF35
:1022300010E0FBCF0E94C7250E94160D0E94D425F6
:1022400008950E94D9250E94260D0E94F325089525
:102250000E947D230E94AD250E94F80C0E941A1155
:102260000E9421110E94080DFBCF8554990BBC01DF
:10227000990F880B990B0E947D2C20E030E040E400
:1022800051E40E94DA2B9B01AC0160E070E080E039
:1022900090E40E949F2D20E030E04CED53E40E943A
:1022A000322D0895FB01803824E7920739F48281AA
:1022B0008823A1F10E94281580E00895813824E741
:1022C000920731F48281882349F10E943915F4CFB5
:1022D000823824E7920741F482818823F9F00E9432
:1022E000F6128111F2CFE6CF843924E7920769F420
:1022F0008281882399F00E94911740E064E070E0A9
:102300008EE191E00E945E13D7CF8539944731F476
:102310008281882319F00E949417EFCF81E00895FD
:102320000E9435110E94231508950E9435110E94C4
:10233000041408950E94FA12089508950895CF9202
:10234000DF92EF92FF9280912F05811177C08091EB
:102350002E05811173C08091B50580FF6FC060911B
:102360005A0170915B0180915C0190915D019B012C
:10237000AC010E94692B6B017C010E940D30BC01F5
:10238000990F880B990B0E947D2C20E03EEF4FEFB8
:1023900056E40E94DA2B209156013091570140916A
:1023A0005801509159010E94322D20E030E040E860
:1023B0005FE30E94692BA70196010E94322D609372
:1023C00046017093470180934801909349010E9410
:1023D0000D30BC01990F880B990B0E947D2C20E0D9
:1023E0003EEF4FEF56E40E94DA2B209156013091D8
:1023F000570140915801509159010E94322D20E01F
:1024000030E040E85FE30E94692B20915A0130914F
:102410005B0140915C0150915D010E94322D6093FF
:102420004E0170934F01809350019093510140E011
:1024300063E070E08EE391E00E945E13FF90EF9006
:10244000DF90CF900895CF92DF92EF92FF9229E034
:1024500038E348E95FE360915A0170915B01809134
:102460005C0190915D010E94322D6B017C0120E0A6
:1024700030E84BEB54E40E94D52B87FF08C0C09294
:102480005A01D0925B01E0925C01F0925D01FF90F5
:10249000EF90DF90CF900895CF92DF92EF92FF926E
:1024A00029E038E348E95FE360915A0170915B01EC
:1024B00080915C0190915D010E94DA2B6B017C019F
:1024C00020E030E042E852E40E942D2D181644F43A
:1024D000C0925A01D0925B01E0925C01F0925D01E2
:1024E000FF90EF90DF90CF90089580E090E0ACED0A
:1024F000B3E480935A0190935B01A0935C01B09385
:102500005D0108959091B505892F8D7F91FF8260BF
:102510008093B5050E94540C08958091B5058260A2
:102520008093B5050E94540C08958091B5058D7F68
:102530008093B5050E94540C08950F931F93CF9379
:10254000DF93EC018B01CA3884E7D80781F4FB01E3
:10255000828181110E948212CE38F4E7DF0751F5A3
:10256000F8018281882331F10E944C1223C0CB38BC
:10257000F4E7DF0799F0CC3884E7D807B1F0CF381B
:10258000E4E7DE0761F1CD3884E7D80729F7F801E1
:102590008281882379F00E9423120CC0FB01828182
:1025A0008823D1F20E948D12D7CFFB018281811145
:1025B0000E9495128091B5058370833051F4F80123
:1025C0008281882331F0C058D447229710F00E94AE
:1025D0009F1181E0DF91CF911F910F910895F80134
:1025E0008281882339F30E947512E4CF8091B5056A
:1025F0008170089580915E01811122C010920905B9
:102600000E94071710920805109207051092050501
:1026100010920405E5E7F5E080E090E0A0E8BFEB6C
:102620001182108282839383A483B58317821682DA
:10263000389625E0E53BF20799F781E080935E014B
:102640000895CF92DF92EF92FF92E09109058E17E5
:10265000F0F4E150E81B88E0E802F0011124EB58A7
:10266000FA4FC280D380E480F58020E030E0A901F9
:10267000C701B6010E94D52B18164CF4C701B6014C
:102680000E949717FF90EF90DF90CF90089560E041
:1026900070E0CB01F7CF9C01A0E6BAEE0E94672F55
:1026A0002091970140E4249F90011124032E000CF7
:1026B000440B550B0E94382FC9010895EF92FF92E9
:1026C0001F93CF93DF93EC017B01142F8091B5050D
:1026D00080FD08C00E94FA12DF91CF911F91FF90F8
:1026E000EF9008958091FE04811102C00E94D513DD
:1026F0008091070581110E94FA1281E080930805FC
:1027000010920105D0937405C0937305F092620591
:10271000E09261051093B605109203051092020530
:102720006C817D818E819F810E944C2CCB010E9407
:102730004B13AC01688179818A819B810E94791455
:102740000E94E423909300058093FF04E0917305B9
:10275000F0917405809102059091030523E0880FA4
:10276000991F2A95E1F7E80FF91F64817581868129
:1027700097810E944C2CCB010E944B13909305052E
:1027800080930405A9CF8091B50580FF07C040E084
:1027900063E070E08FE791E00E945E130E94E42303
:1027A000909300058093FF0408958091FE048111A9
:1027B0002AC00E942E0C811102C00E94C70C0E94E8
:1027C0004F0C8093B505E5E7F5E080E090E0A0E8E8
:1027D000BFEB1182108282839383A483B583178217
:1027E0001682389625E0E53BF20799F78091FE04C2
:1027F000811105C00E94FD1681E08093FE040E94B5
:10280000FA120E94C3130895B0E0A0E0EAE0F4E1F8
:102810000C94802F6B017C0120E030E0A9010E9424
:10282000D52B87FF04C0F7FAF094F7F8F094809165
:102830000705882309F458C08091FE04811102C065
:102840000E94D51305E715E0C7E0D0E0A701960187
:10285000F80162AD73AD84AD95AD0E94D52B8111A9
:102860003CC083E0CC0FDD1F8A95E1F7CB58DA4FEF
:102870001982188280E090E0A0E8BFEB8A839B83F6
:10288000AC83BD831F821E82AC01BD01F5E0CD3A51
:10289000DF0789F4C1E0C0930605809109058150E6
:1028A00080930905811120C00E940717C0935E0123
:1028B0001092070519C088E0FE013896DE010190EC
:1028C0000D928A95E1F7198618864A875B876C878F
:1028D0007D871F861E862896D9CF2197085011091B
:1028E000CF3FDC0709F0B2CFCDB7DEB7E8E00C94FC
:1028F0009C2FB0E0A0E0EFE7F4E10C947C2F6B019B
:102900007C018A018091B50580FF7AC08091FE0428
:10291000811102C00E94D51320E030E0A901C70157
:10292000B6010E94D52B87FF04C0F7FAF094F7F8A0
:10293000F094D09109052D2F2150330B59013FEF11
:10294000A316B30609F040C0DF5FD93008F478C0A1
:1029500088E08093090585E795E028E0FC0138963A
:10296000DC0101900D922A95E1F70896E5E08D3A99
:102970009E0799F781E08093060580930705C09133
:102980000905C150DD0B0E94E423FE0123E0EE0F98
:10299000FF1F2A95E1F7EB58FA4F91838083C2829B
:1029A000D382E482F582178306830E94E423909306
:1029B00014058093130580915E01882309F10E941C
:1029C0000A1710925E011CC0C50133E0880F991FE1
:1029D0003A95E1F7FC01EB58FA4F4F01A701960138
:1029E00062817381848195810E94D52B811124C0DD
:1029F000E401809109058150990BA816B9062CF0C5
:102A0000CDB7DEB7ECE00C94982FFFEFAF1ABF0AFA
:102A100088E0FE013896DE0101900D928A95E1F77B
:102A20000E94E42399878887CA86DB86EC86FD8628
:102A30001F870E872896DDCF21E0A21AB1087FCF2D
:102A4000D093090597CF4FEF5FEF0E947914089557
:102A50008091B50581608093B5050E94540C0E9459
:102A60009D1140E062E070E08FE691E00E945E130D
:102A7000089540E062E070E08FE591E00E945E130F
:102A80000E949E112FEF81EE94E0215080409040F3
:102A9000E1F700C000000E94FA128091B5058E7F18
:102AA0008093B5050E94540C08958F929F92AF9227
:102AB000BF92DF92EF92FF920F931F93CF93DF931A
:102AC00080910705811105C0C0910805CC2309F448
:102AD000B0C00E94E423EC01D0900805D11023C0BF
:102AE000D12C80910705CD2D8823A1F0C09115052B
:102AF000C11105C0C0911605C11101C0CD2D05E75A
:102B000015E0F12CE12C809109058E151F0411F0C0
:102B10000CF0EBC080910605882309F48AC010925E
:102B20000605C82F86C08091FF04909100050E9481
:102B3000FC2320910405309105058217930780F24C
:102B40008091FF04909100050E94FC2320910405D0
:102B5000309105057C01E21AF30AD0930005C09379
:102B6000FF04A0900205B0900305C5010196909363
:102B70000305809302050E94E4239093140580933B
:102B800013050091610510916205809102059091F5
:102B900003058017910748F0C091B605CC2309F4CE
:102BA00046C01092030510920205C0917305D091A2
:102BB000740580900205909003058091010533E033
:102BC000880C991C3A95E1F7811140C0F50123E08A
:102BD000EE0FFF1F2A95E1F7EC0FFD1FDE01A80D98
:102BE000B91D2D913D914D915C91608171818281E2
:102BF00093810E94D52B811129C081E0809301052A
:102C000082E090E00E944B13AC0160E070E0CB01E9
:102C10000E947914B0920305A092020582E090E030
:102C20000E944B1390930505809304055ACF0E9490
:102C3000FA128C2FDF91CF911F910F91FF90EF909F
:102C4000DF90BF90AF909F908F90089510920105F4
:102C5000FE01E80DF91D64817581868197810E94CE
:102C60004C2CCB010E944B130150110920910205FD
:102C7000309103058E159F0518F420173107D8F001
:102C80008C010E191F09E816F90610F001E010E09A
:102C900083E0220F331F8A95E1F7C20FD31F6881AB
:102CA00079818A819B81A8010E947914109305057E
:102CB0000093040516CFE81AF90A2F5F3F4F3093AF
:102CC00003052093020593E0220F331F9A95E1F745
:102CD000FE01E20FF31F64817581868197810E9456
:102CE0004C2CCB010E944B13C1CFF80186819781F8
:102CF00001978E3F9F4F88F4F801808191810E9457
:102D0000FC23F801268137818217930730F0628116
:102D10007381848195810E940414FFEFEF1AFF0AEA
:102D2000085F1F4FF0CECF92DF92EF92FF926B01C0
:102D30007C0120E030E0A9010E94D52B81110AC05E
:102D400080918000837F80938000FF90EF90DF90E0
:102D5000CF90089580918000886080938000C09219
:102D60000E05D0920F05E0921005F092110520E0BB
:102D700030E040E051E4C701B6010E94322D9B01D2
:102D8000AC0160E074E284E79BE40E94DA2B6B0103
:102D90007C010E944C2C70938700609386006091A8
:102DA000980170E090E080E00E947D2CA7019601E0
:102DB0000E94322D20E030E048EC52E40E94DA2BF1
:102DC0000E944C2C70938D0060938C00BECFEFE678
:102DD000F0E0808188608083E0E8F0E080818860B6
:102DE00080830895EFE6F0E08081877F8083E0E8CC
:102DF000F0E08081837F808308950E94F216279AF5
:102E000082E0809380008AE18093810008950E948F
:102E1000F21608950E94E71680910705882329F08D
:102E200080E00E9421130E94931608951F920F9232
:102E30000FB60F921124CF92DF92EF92FF922F9351
:102E40003F934F935F936F937F938F939F93AF9332
:102E5000BF93EF93FF9380910A0590910B05A0918A
:102E60000C05B0910D050196A11DB11D80930A05B9
:102E700090930B05A0930C05B0930D0560910A0586
:102E800070910B0580910C0590910D050E947B2C93
:102E90006B017C0120E030E040E85CE360910E05CE
:102EA00070910F0580911005909111050E94322DAF
:102EB0009B01AC01C701B6010E94D52B87FD14C050
:102EC00010920A0510920B0510920C0510920D0538
:102ED0000E9455159091070591111BC0909108050E
:102EE000911117C00E94F216FF91EF91BF91AF911F
:102EF0009F918F917F916F915F914F913F912F9112
:102F0000FF90EF90DF90CF900F900FBE0F901F902B
:102F10001895882349F380E00E9421130E9493169C
:102F2000E3CF109212050895109212050895209192
:102F30001205211102C010921605089580912F05E7
:102F400081110E949A11089521E08F3F910508F0A8
:102F500020E0822F08950E94A41708950E949E17D2
:102F600010922F0540E068E070E089E192E00E9455
:102F70005E13089510922E0540E068E070E089E944
:102F800091E00E945E1308950E949E1720913B03DA
:102F900030E02F5F3F4F2370332720933B0348E2FD
:102FA000429FC001439F900D112440E065E070E016
:102FB00087569D4F0E945E130895CF9380912B05F5
:102FC000882309F442C08091170590911805009755
:102FD00099F50E94E4239093180580931705E091DA
:102FE000190580911A058150990BEE2321F02E2F9F
:102FF0002150330BC90120912F05222389F0F0E0E5
:10300000E55EFA4FC081855E9A4FFC0180810E9487
:10301000951180912F05882319F08C2F0E94901113
:103020008091190590E0019660911A0570E00E9468
:10303000242F8093190509C00E94FC232091390395
:1030400030913A032817390720F2CF910895089557
:1030500081E080932F0540E068E070E089E592E030
:103060000E945E130E9427180895089581E08093BE
:103070002E0540E068E070E089ED91E00E945E136B
:103080000E9435180895EF92FF921F93CF93DF931C
:10309000CDB7DEB7A3970FB6F894DEBF0FBECDBF96
:1030A0007C01803944E79407A9F4DB0112968C91E6
:1030B000882309F458C00E94281880E0A3960FB610
:1030C000F894DEBF0FBECDBFDF91CF911F91FF906F
:1030D000EF9008958139B4E79B0741F4FB018281A9
:1030E000882309F440C00E94AE17E7CF8239F4E785
:1030F0009F0751F480912F05DB0112969C91992333
:1031000091F18111F0CFD7CF8115B1E79B0739F449
:10311000FB018281882339F10E943618CECF81309D
:10312000F1E79F0741F4DB0112968C918823D9F0D7
:103130000E94BA17C2CF8230B1E79B0749F4FB0166
:103140008281882381F080912E058111F1CFE4CF17
:103150008339944741F4DB0112968C91882319F04E
:103160000E94C417AACF20912F05211105C080917C
:103170002E05882309F4DBC0FB013281332309F4D7
:1031800050C0F0EEEF16F10461F40E949E1781E04A
:1031900080932D0510922C0510922B0510921A0584
:1031A0008CCF42EEE416F10471F40E949E178091D8
:1031B0002D05882319F081E080932C0510922D05B0
:1031C00010922B057ACF83EEE816F10491F48091EA
:1031D0002C05882331F10E949E1710922D0581E065
:1031E00080932B051092190510921805109217055F
:1031F00064CF92E5E916F10451F48091390390917E
:103200003A030A9790933A038093390356CFA1E586
:10321000EA16F10431F48091390390913A030A9649
:10322000F1CF80913B0310913E03811111C01350E7
:1032300080913C03180FFB018081180F418185E0CC
:1032400090E0841B9109FCE08F9F100D112414C0A5
:10325000813071F5105E80913C03180FDB018C9179
:10326000180F11964C9185E090E0841B9109982FDE
:10327000990F990F890F180F332309F451C0222396
:1032800019F0812F0E94901180912D05882351F013
:1032900080911A05E82FF0E0E55EFA4F10838F5F0A
:1032A00080931A05C7010E94AB1791E0892706CFCA
:1032B000823071F4105E80913C03180FFB01808115
:1032C000180F418185E090E0841B9109F7E0BCCFA5
:1032D000833091F683E2E1ECF3E0DE011196019098
:1032E0000D928A95E1F7DB01EC9181E090E08C0F83
:1032F0009D1F8E0F911DFC0180913C0390913D0319
:10330000E80FF91F13508081180F11964C9185E03A
:1033100090E0841B9109ACE08A9F100D1124ACCF82
:10332000222309F4BFCF812F0E949511BBCF81E0EA
:10333000C5CE82E290E00E943330823289F483E28B
:1033400090E00E943330813159F484E290E00E9491
:10335000333091E0893209F090E0892F817008952F
:1033600080E0FCCFCF93C82F6FEF811162E282E241
:1033700090E00E9447306FEFC11161E183E290E07D
:103380000E9447306FEFC11169E284E290E00E9431
:103390004730CF910895089585E290E00E94333040
:1033A000682F70E090E080E008950895CF93C62FD5
:1033B0000E94D5196C2F85E290E00E944730CF9192
:1033C000089580E00E94B21960E070E0CB010E9495
:1033D000D6190E94081E0E94D71E81E00E94B219D1
:1033E00008950E94CB190E94CC190E94D5190E9401
:1033F0009919811102C00E94E119089581110DC02F
:103400008FE39CE90197F1F700C0000040E063E022
:1034100070E08FE393E00E945E130895CF93FB0169
:10342000C281CC2309F19C0122503747203131055C
:1034300020F582500E94E71EC0E08C2FCF910895A6
:1034400081E00E94720743E062E081E00E94DD02B9
:10345000F3CF81E00E947E0743E062E081E00E94BA
:10346000DD02EBCF82E0F6CF8115F7E79F0789F306
:1034700081309747B9F3C1E0E0CF8115E7E79E07B8
:10348000F9F281309747C9F682E0DBCF2FEFFC01DC
:103490002083089580E00895FC018081813019F037
:1034A000823031F008958091B5058170818308954F
:1034B0008091B50586958170F9CFFC0180818130BE
:1034C00019F0823069F0089591E08181811101C085
:1034D00090E08091B50590FB80F98093B505089543
:1034E00091E08181811101C090E08091B50590FB50
:1034F00081F9F3CF8091B5050E94540C0895FC0129
:103500009C012E5F3F4F9081983041F0993051F0EF
:10351000973059F4C9010E945D1A0895C9010E94AB
:103520004C1A08950E947A1A08958FEF80830895A7
:10353000FC012181243019F40E947F1A08950E9411
:10354000461A0895EF92FF920F931F93CF93DF9344
:10355000EC01062F0E944A1A811110C0E881E15047
:10356000E331B8F4F0E0E554FF4C0C945A2F198283
:103570008BE08A83602FCE010E94A124CDB7DEB7F5
:10358000E6E00C949E2F89818230C1F028F48130CE
:1035900061F08FEF8883EECF833099F08430C9F7E4
:1035A0001A821B821C821D82E5CF0E94F0230E949A
:1035B000602F6A837B838C839D83DCCF0E94CC1930
:1035C000F6CF7E0110E0812F0E94D40FF701928385
:1035D00083831F5FF2E0EF0EF11C1530A1F7CACF15
:1035E0008981823031F08530A1F68A810E94FE19EE
:1035F000C1CF6A817B818C819D810E94602F0E9456
:10360000D619B8CF4B816A8189810E94CA1D98273B
:10361000892798279D838C83ADCF2C813D813227CC
:10362000232732274B816A8189810E94EC1DA2CF1A
:103630000E94081E9FCF602FCE010E94981A9ACF39
:103640000E94881E898396CF0E948A1E9827892708
:1036500098279A8389838ECF6B8170E089819A81C4
:10366000AE014C5F5F4F9827892798270E948D1ED7
:1036700081CF6B8170E089819A81AE014C5F5F4F91
:103680009827892798270E94B21E74CF0E94D71EC0
:1036900071CF0E94B81DD6CF6B8170E089819A816D
:1036A000AE014C5F5F4F9827892798270E94341EF0
:1036B00061CF6B8170E089819A81AE014C5F5F4F71
:1036C0009827892798270E94581E54CF8093570324
:1036D000089590E0FC01E05DFA4F208121110AC0BD
:1036E000289AFC01EC5CFA4F10828D5C9A4FFC0129
:1036F000108208952898F5CFCF93DF93C82FD0E09C
:103700008091B80582FD06C0FE01EC5CFA4F908105
:1037100091111DC0FE01ED5CFA4F82FF03C0808154
:10372000811115C0DE01AC5CBA4F81E08C938083BF
:103730000E94E423FE01EE0FFF1FEF5CFA4F91831E
:103740008083C05DDA4F8881882321F0289ADF9139
:10375000CF9108952898FBCF80E00E947C1B0895AC
:1037600080913405882359F180913105909132057B
:103770000E94FC23209157032817190620F480E0AB
:103780000E94691B08952091B80522FF18C09091EE
:10379000330582FD0BC0911112C081E08093330587
:1037A00080913005882351F0289A0895992339F0A3
:1037B00010923305809130058823B1F3289808953D
:1037C00081E0809330052898209A80E00E947C1B3D
:1037D000089580913005811102C0289A0895289893
:1037E0000895CF93DF93EC01FB018281882309F4D4
:1037F000FAC09E0130572332310508F057C00E94AD
:10380000440C90934C0580934B05FE01E150F0472A
:10381000E232F10520F4E253FF4C0C945A2F8091D0
:103820004B05816080934B0538C080914C058860C2
:1038300080934C0532C080914B058260F3CF80911C
:103840004B058460EFCF80914B058860EBCF809172
:103850004C058160EDCF80914C058260E9CF80916D
:103860004B058061DFCF80914B058062DBCF80917B
:103870004B058064D7CF0E94F40680914B05806889
:10388000D1CF80914B058C6080934B0540E064E084
:1038900070E088E893E00E945E1380914B05909160
:1038A0004C050E94490C0E94F40680E0DF91CF9104
:1038B000089580914C05836080934C0540E064E05E
:1038C00070E088E593E0E7CF80914B058E7FAACF2B
:1038D00080914C05877FACCF80914B058D7FA2CF27
:1038E00080914B058B7F9ECF80914B05877F9ACF30
:1038F00080914C058E7F9CCF80914C058D7F98CF19
:1039000080914B058F7E8ECF80914B058F7D8ACF26
:1039100080914B058F7B86CF0E94F40680914B05EA
:103920008F7780CF80914B05837F80934B0540E05C
:1039300062E070E088EA93E0AECF80914C058C7F26
:1039400080934C0540E062E070E088E793E0A3CF0D
:1039500080914B0582FB992790F921E0922790FBFB
:1039600082F990FB83F980934B0540E083FFE0CF21
:103970008ECF80914C05982F909591708E7F892BDA
:1039800090FB81F980934C0540E081FFDCCF97CF1D
:1039900090914B05892F8F7B96FF806443CF0E94C7
:1039A000F40690914B05892F97FB87F980583ACF01
:1039B00081E00E94D60C71CF80E0FBCF90914B0547
:1039C000892F8F7E94FF80612DCF90914B05892F99
:1039D0008E7F90FF816026CF90914C05892F877F45
:1039E00093FF886025CF81E061CFB0E0A0E0EBEFEE
:1039F000FCE10C94812FE82FF0E0E65AFD4FD490C3
:103A0000282F26952695269530E0F901E650FD4FA2
:103A10000491877010E0082E02C0159507950A944E
:103A2000E2F701701127F901E651FD4FE490F12C06
:103A3000082E02C0F594E7940A94E2F791E0E92297
:103A4000FF24F901E652FD4FC491D0E002C0D595A4
:103A5000C7958A95E2F7C170DD270115110519F0A8
:103A600081EE0E941B04E114F10419F086EE0E941D
:103A70001B048D2D0E94A104E114F10419F086EEBF
:103A80000E945F040115110519F081EE0E945F0488
:103A9000CD2B19F08CE20E94A104CDB7DEB7E7E090
:103AA0000C949D2FEF92FF920F931F93CF93DF9370
:103AB000EC01162F0AE08881882309F454C0813074
:103AC00009F04EC08981813099F47E0122E0E20E36
:103AD000F11C8A810E94A104E7012196812F815067
:103AE00050F3EFE9FFE03197F1F700C00000F7CFA6
:103AF000823041F47E0182E0E80EF11C8A810E944E
:103B00001B04EACF833041F47E01E2E0EE0EF11CAB
:103B10008A810E945F04E0CF843011F02196DDCFCE
:103B20002A81229690E080E0AE014F5F5F4F2053E4
:103B3000330B2A30310548F0019778F2EFE9FFE0C6
:103B40003197F1F700C00000F7CF089FB001099F3F
:103B5000700D1124C901860F971F2981EA01E4CF56
:103B60000E94F51CBACFCDB7DEB7E6E00C949E2FCD
:103B700084E0089550E0440F551F9EE1699F400D79
:103B8000511D112496E9899F400D511D1124CA0130
:103B9000869608950F931F93CF93DF938430C8F4D4
:103BA0006530B8F44F30A8F40E94BA1D8C010E9411
:103BB0003330C82FD0E0DC2FCC27C80101960E94FB
:103BC00033309E01282BC901DF91CF911F910F91B6
:103BD000089590E080E0F8CF0F931F93CF93DF9389
:103BE000122F032F843078F4653068F44F3058F486
:103BF0000E94BA1DEC01602F0E944730612FCE0158
:103C000001960E944730DF91CF911F910F91089547
:103C10000F931F93CF93DF93D0E0C0E010E019C063
:103C20000E94530221E030E08C171D0639F034F079
:103C3000402F612F8C2F0E9455029C01402F612F35
:103C40008C2F0E94EC1D0F5F0F3051F71F5F153056
:103C500011F000E0E5CF2196C430D105F9F6DF91EF
:103C6000CF911F910F910895EF92FF920F931F93A1
:103C7000CF93DF93EC018A017C01E60EF71ECE01A3
:103C80008696CE15DF0529F4CDB7DEB7E6E00C94B5
:103C90009E2FC83522E0D20740F40E943330F8014D
:103CA00080830F5F1F4F2196EACFF8011082F9CF72
:103CB000B0E0A0E0EEE5FEE10C94802F7C016A010B
:103CC0008C01060F171FEC01CE018696C017D10795
:103CD00029F4CDB7DEB7E8E00C949C2FC83522E07C
:103CE000D20740F4FE01EE19FF09EC0DFD1D6081C5
:103CF0000E9447302196E8CF843038F4653028F4AC
:103D00004F3018F40E94CA1D089590E080E0089595
:103D100080E1089582E891E00895EF92FF920F9379
:103D20001F93CF93DF93EC018A017C01E60EF71E0F
:103D3000CE0182589D4FCE15DF0529F4CDB7DEB7F1
:103D4000E6E00C949E2FC23821E0D20740F40E9496
:103D50003330F80180830F5F1F4F2196E9CFF801C0
:103D60001082F9CFB0E0A0E0E8EBFEE10C94802FE8
:103D70007C016A018C01060F171FEC01CE018258ED
:103D80009D4FC017D10729F4CDB7DEB7E8E00C94FA
:103D90009C2FC23821E0D20740F4FE01EE19FF0942
:103DA000EC0DFD1D60810E9447302196E7CFCF9337
:103DB000DF93CEE7D2E060E0CE010E94473021964B
:103DC000C11584E0D807B9F7DF91CF910895A8E035
:103DD000B0E0EDEEFEE10C947E2FF82E8FE08F1513
:103DE00008F46EC08FEF93E00E943330811168C0F9
:103DF0000EE712E0F11035C0FE0131966F0188E048
:103E000011928A95E9F77801FFEFEF1AFF0AC801CE
:103E10000E94333089831A82882309F451C081308B
:103E2000D1F4580182E0A80EB11CC7010E943330C2
:103E30008A83882309F444C09FEF980F9330F0F4ED
:103E4000780193E0E90EF11CC5010E9433308B83A9
:103E50008823B1F11C8260E0C6010E94521D8701D7
:103E6000D2CF011594E0190759F1C8010E943330EF
:103E7000811101C0FA940F5F1F4FBCCF75018430D0
:103E800051F702E010E07501EFEFEE1AFE0AC501EE
:103E90000E943330F601E00FF11F8083882381F008
:103EA0008C3741F4E2E0F0E0EC0FFD1FE00FF11F72
:103EB0001082D1CF0F5F1F4F57010730110519F73F
:103EC0002896EAE00C949A2FCF93DF93EB0186318A
:103ED0009C4711F50E94400B9A81992399F08A7AA8
:103EE00091E009F490E090933505811109C089E2D1
:103EF0000E94180B0E94810B80E0DF91CF91089502
:103F000085E3F6CF80913505811104C089E20E94D6
:103F1000200BF0CF85E3FBCF81E0EFCF81E0089568
:103F20000F931F93CF93DF938C01EB018A8188233A
:103F300061F0F801E054FC47ED30F10530F4E05158
:103F4000FF4C0C945A2F0E94E91F0E947021882375
:103F500071F08A818823A9F10E947421823038F49B
:103F6000BE01C8010E948E1F81110E94CF2181E0F5
:103F7000DF91CF911F910F9108950E94F91FE5CF16
:103F80000E940920E2CF0E943A20DFCF0E941D202C
:103F9000DCCF0E940621D9CF0E94B020D6CF0E944C
:103FA000C120D3CF0E943221D0CF0E945121CDCF4A
:103FB0000E949D21CACF0E94A721C7CF0E94BB218A
:103FC000C4CF0E947421882391F2CACF0E94B01BF3
:103FD0000895E7EBF5E08081816080836091B7050B
:103FE0007091B8058091B9059091BA050E94CF0CE7
:103FF0000895E7EBF5E080818E7F80836091B705BF
:104000007091B8058091B9059091BA050E94CF0CC6
:1040100008958091B70580FF0DC00E94F91F60913F
:10402000B7057091B8058091B9059091BA050E94C5
:10403000CF0C08950E94E91FF2CF9091B705892F08
:1040400086958F5F8370880F997F892B8093B70542
:10405000982F9670963019F4897F8093B7056091F8
:10406000B7057091B8058091B9059091BA050E9485
:10407000CF0C0895E7EBF5E08081887F8160808335
:10408000818183708066818382818C7F82838CE0D2
:104090000E94661B6091B7057091B8058091B905C3
:1040A0009091BA050E94CF0C08950E942E0C8111A8
:1040B00002C00E94C70C0E94CA0C6093B70570939F
:1040C000B8058093B9059093BA059091B805969577
:1040D000969596958091B90583708295880F807E1C
:1040E000892B0E94661B8091B7059091B805A0911D
:1040F000B905B091BA05892B8A2B8B2B71F0809171
:10410000B805982F9695969596958091B9058370E8
:104110008295880F807E892B11F40E943A200E949C
:10412000E01B0895E7EBF5E0282F220F220F220F66
:1041300090819770922B9083829586958370E8EB9F
:10414000F5E090819C7F892B80836091B705709109
:10415000B8058091B9059091BA050E94CF0C0895D9
:104160008091B705982F9695969596958091B8056C
:1041700083708295880F807E892B8F5F0E949220AA
:1041800008958091B705982F96959695969580916C
:10419000B80583708295880F807E892B81500E949C
:1041A00092200895E9EBF5E0282F220F220F220F2D
:1041B00090819770922B9083EAEBF5E0982F92957F
:1041C000969597708081887F892B80836091B70551
:1041D0007091B8058091B9059091BA050E94CF0CF5
:1041E000089591E0811101C090E08091B80590FBA5
:1041F00082F98093B8056091B7057091B8058091F8
:10420000B9059091BA050E94CF0C0895E8EBF5E04E
:10421000908192FB882780F921E0822780FB92F928
:1042200090830E94F1200895E8EBF5E0282F220FFB
:10423000220F220F90819770922B90838295869502
:104240008370E9EBF5E090819C7F892B80836091FE
:10425000B7057091B8058091B9059091BA050E9493
:10426000CF0C0895CF93DF93C091B8058C2F86951E
:1042700086958695C091B905C370C295CC0FC07E56
:10428000C82BC43658F4D0E021968C2F0E94661BB0
:104290008C2F0E941421DF91CF910895C4E0D0E0CB
:1042A000F4CFCF93DF93C091B8058C2F8695869578
:1042B0008695C091B905C370C295CC0FC07EC82B3E
:1042C000C53058F0C150DD0B8C2F0E94661B8C2F1F
:1042D0000E941421DF91CF910895C4E6D0E0F4CF7D
:1042E0008091B705817008958091B70580FF03C064
:1042F00086958370089580E00895E9EBF5E080816C
:10430000846080836091B7057091B8058091B9058C
:104310009091BA050E94CF0C0895E9EBF5E08081F9
:104320008B7F80836091B7057091B8058091B90546
:104330009091BA050E94CF0C08958091B90582FF33
:1043400003C00E948D2108950E947D2108958091CF
:10435000B905982F9695969596958091BA05829570
:10436000880F807E892B883720F4865F0E94D220B8
:10437000089588E7FBCF8091B905982F969596957B
:1043800096958091BA058295880F807E892B84311D
:1043900020F08A500E94D220089584E1FBCF0E9431
:1043A000AC1B08950E94E91B08950F931F93CF93B0
:1043B000DF93C42FD22FFC0182818823C9F0409360
:1043C00038050E94E423909337058093360580E2F8
:1043D0008C0F883040F4C77081E001C0880FCA9507
:1043E000EAF70E94AA04DF91CF911F910F910895DF
:1043F00010913805141332C080913605909137051D
:104400000E94FC23883C910548F5C0E2CD0F1D17A2
:10441000B9F080E2810F883040F4177081E001C06C
:10442000880F1A95EAF70E94B104C83048F481E079
:104430009D2F977001C0880F9A95EAF70E94AA04F1
:10444000802F0E94A104C83070F6D77081E001C0AF
:10445000880FDA95EAF70E94B104C5CF80E28C0F8D
:10446000883008F6C77081E001C0880FCA95EAF766
:10447000F2CF0F93DB0188519C4787309105A0F55F
:10448000FC01E350FF4C0C945A2F06E221EE41EE62
:104490006AE17CE7CD010E94D52180E00F9108956B
:1044A00007E225EE45EE6BE17CE7F4CF06E221EE74
:1044B00040EE68E17CE7EECF07E225EE44EE69E1ED
:1044C0007CE7E8CF06E221EE42EE6CE17CE7E2CF4A
:1044D00007E225EE46EE6DE17CE7DCCF08E221E065
:1044E00045EE6EE17CE7D6CF12968C91882319F0C9
:1044F00010923805D3CF81E0D1CF9093730480938D
:104500007204089590933E0580933D050895E091CF
:104510003D05F0913E05309729F00190F081E02DA6
:104520000995089580E00895E0913D05F0913E05DC
:10453000309721F00280F381E02D09950895A3E0E2
:10454000B0E0E5EAF2E20C94862F20913B05309131
:104550003C0528173907A1F090933C0580933B0553
:10456000E0913D05F0913E05309751F023E029831D
:104570009B838A830680F781E02DCE010196099501
:104580002396E2E00C94A22FA3E0B0E0EAECF2E282
:104590000C94862F2091390530913A052817390758
:1045A000A1F090933A0580933905E0913D05F09193
:1045B0003E05309751F024E029839B838A8306804F
:1045C000F781E02DCE01019609952396E2E00C9447
:1045D000A22F9C012E5F3F4FAC01485F5F4F80E0F0
:1045E0002417350709F40895F90191919F01992342
:1045F000B9F38F5FF5CF662349F0FC013296089638
:104600002191261729F0E817F907D1F780E00895DE
:1046100081E008959C01FC0132969FEF80E041917A
:10462000461751F09F3F19F4411101C0982F8F5F39
:104630008630A9F79F3F09F40895290F311D97FD92
:104640003A95F90162830895FC013296089621910A
:10465000261303C0DF0111971C92E817F907B9F779
:1046600008950E940A2308950E9424230895029623
:1046700026E0FC0111922A95E9F7089508950E9419
:104680003E230895811106C081E080933F050E947A
:104690003F23089582E0F9CF83E080933F050E9495
:1046A0003F2308950E944223089581E080933F05AF
:1046B0000E943F2308950E94552308950895089568
:1046C0000E945F230895089508950E945E2308952F
:1046D000CF930E9463230E949F100E946423C0E036
:1046E0008C2F0E94D40F892B31F4CF5FC530C1F7D6
:1046F00080E0CF91089581E0FCCF85B7806885BFC9
:1047000085B7806885BF08951F921FB61F92112438
:104710008F939F93AF93BF9380914005811113C0F6
:104720008091BB059091BC05A091BD05B091BE05DF
:104730004196A11DB11D8093BB059093BC05A0932C
:10474000BD05B093BE05BF91AF919F918F911F9012
:104750001FBE1F9018958091C305843031F10E94CF
:1047600092031092400588E190E020E40FB6F8949F
:10477000A895809360000FBE2093600083B7817F6F
:10478000846083BF83B7816083BF7894889583B743
:104790008E7F83BF0FB6F894A895809160008861E2
:1047A00080936000109260000FBE08950E94F4068E
:1047B0000E949903089582E084BD93E095BD9AEF2D
:1047C00097BD80936E0008952FB7F8948091BB0534
:1047D0009091BC05A091BD05B091BE052FBF089575
:1047E0002FB7F8946091BB057091BC058091BD0511
:1047F0009091BE052FBF08959C014FB7F89480910A
:10480000BB059091BC05A091BD05B091BE054FBF01
:10481000821B930B089578941F921FB61F92112448
:104820008F939F93AF93BF938091BB059091BC05ED
:10483000A091BD05B091BE050196A11DB11D80934B
:10484000BB059093BC05A093BD05B093BE05BF9179
:10485000AF919F918F911F901FBE1F90189581E07F
:104860008093E00080E28093D8001092C9008FE12D
:104870009EE40197F1F700C0000087E090EBDC01B7
:104880008093CC059093CD05A093CE05B093CF0532
:1048900088E19CE00FB6F894A895809360000FBE65
:1048A00090936000FFCF88E19CE00FB6F894A89544
:1048B000809360000FBE90936000FFCF8091490508
:1048C000089508959B01BA019091C3059430E9F4CD
:1048D0008F708093E9009FEF8091E800915085FDF3
:1048E00006C085ED8A95F1F700009111F5CF809112
:1048F000E80085FF0AC050E040E0C9010E9492260E
:104900008091E8008E778093E800089543E050E0BE
:10491000BC0184E00E9462240895CF93DF93EC01F0
:1049200048E050E0BC0181E00E94622488E0FE0182
:10493000A1E4B5E001900D928A95E1F7DF91CF9166
:104940000895603231F440E250E0BC0182E00E9400
:10495000622408958091C205811109C00E947128C6
:104960000E94CE288091E20084608093E200089546
:104970001092C20508950E94552308956091BF05C5
:1049800081E0611101C080E00E944C230895909164
:10499000C30581E0943009F080E06091BF050E947A
:1049A0005223089542E061EC81E00E94ED2742E24B
:1049B00061EC84E00E94ED2742E261EC82E00E941B
:1049C000ED2742E260EC83E00E94ED279091C30561
:1049D00081E0943009F080E06091BF050E9442239D
:1049E00008958091C505833009F463C030F48130A7
:1049F000E1F1823009F4A0C008958A3009F48CC036
:104A00008B3009F471C0893009F052C08091C4051F
:104A1000813209F04DC08091C8059091C905009779
:104A200019F0029709F044C08091E800877F8093D5
:104A3000E8008091E80082FF37C09091F3008091F8
:104A4000F200029731F48091F100813011F086304C
:104A500021F48091F100809349058091E8008B77E3
:104A60008093E8000E94212823C08091C405813AE8
:104A7000F9F48091E800877F8093E8008091C80571
:104A80009091C905892B61F468E081E495E070E0BC
:104A90000E9430278091E8008B778093E80008958A
:104AA00060E090E080E0F3CF8091C3058111C1CF39
:104AB00008958091C405813AD9F78091C8059091F5
:104AC000C905892BA9F78091E800877F8093E800CA
:104AD0008091E80080FFFCCF8091C0038093F100BB
:104AE0008091E8008E77BCCF8091C405813201F7B8
:104AF0008091C8059091C905892BD1F68091E80075
:104B0000877F8093E8000E9421288091C6058093CA
:104B1000C0030E94F40608958091C405813241F6D5
:104B20008091E800877F8093E8000E94212880918F
:104B3000C70580934A0508958091C405813A09F01C
:104B4000B7CF8091E800877F8093E8008091E800EC
:104B500080FFFCCF80914A05C1CF84B7877F84BF97
:104B60000FB6F894A89580916000886180936000EA
:104B7000109260000FBE80E890E00FB6F89480932A
:104B80006100909361000FBE0E945B2308950E9414
:104B900071280E94CE28E2EEF0E08081846080835C
:104BA00078940E944D2B089588EB93E00E94822216
:104BB00008958091C305853031F48091C305853017
:104BC00019F00E94D62308950E94AB238091C1055D
:104BD000882399F30E946823882379F30E947C2616
:104BE0000E94F406EACFA0E2B0E0E9EFF5E20C940F
:104BF000862F8091C305843009F583E08093E90016
:104C00008091E80082FF1AC08091E80090E085FF63
:104C100009C050E040E060E270E0CE0101960E94E1
:104C2000E12691E08091E8008B778093E80099235A
:104C300029F060E2CE0101960E94A21AA096E2E05D
:104C40000C94A22F0E9425260895292F3327233064
:104C5000310521F168F42130310509F443C02230D7
:104C6000310509F444C090E080E030E020E026C047
:104C70002132310551F122323105A9F76330710536
:104C800090F7FB01EE0FFF1FEB59FB4F20813181A5
:104C90006E597B4FFB01808190E010C099278130D5
:104CA000910581F0009729F00297E9F6EAE0F3E038
:104CB00002C0ECE2F3E0849190E09F01FA013183BD
:104CC00020830895ECE1F3E0F6CF6330710558F6E8
:104CD000660F771FFB01E559FB4F2081318189E089
:104CE00090E0ECCF82E190E02BE833E0E7CF8BE57A
:104CF00090E020E333E0E2CF80E189BD82E189BD2D
:104D000009B400FEFDCF8091D8008F7D8093D8003C
:104D10008091E00082608093E0008091E00081FD5E
:104D2000FCCF0895AF92BF92CF92DF92FF920F9384
:104D30001F93CF93DF936C01EB018A010E944028FF
:104D4000F82E811123C00115110539F0F801808179
:104D50009181C81BD90BC80ED91EB12CA12C20974C
:104D6000A9F08091E80085FD22C08091E8008E774F
:104D70008093E80001151105A1F0F801808191816F
:104D8000A80EB91EB182A08285E0F82E8F2DDF918A
:104D9000CF911F910F91FF90DF90CF90BF90AF9078
:104DA00008950E9440288823D1F2F82EEFCFF60113
:104DB00081916F018093F1002197FFEFAF1ABF0A35
:104DC000CECFAF92BF92CF92DF92FF920F931F93FD
:104DD000CF93DF936C01EB018A010E944028F82EEB
:104DE000811123C00115110539F0F80180819181ED
:104DF000C81BD90BC80ED91EB12CA12C2097A9F025
:104E00008091E80085FD22C08091E8008B77809337
:104E1000E80001151105A1F0F80180819181A80E2B
:104E2000B91EB182A08285E0F82E8F2DDF91CF913F
:104E30001F910F91FF90DF90CF90BF90AF9008959A
:104E40000E9440288823D1F2F82EEFCF8091F10004
:104E5000F60181936F012197FFEFAF1ABF0ACECF02
:104E6000FC018091CA059091CB0586179707A0F0A9
:104E70006115710529F49091E8009E779093E80000
:104E800090E06115710551F4911108C08091E8001E
:104E900082FF34C080E00895BC01F2CF8091C30549
:104EA0008823C1F18530C1F18091E80083FD30C0D5
:104EB0008091E80082FDEACF8091E80080FFE1CF99
:104EC0008091F3002091F200382F6115710519F0DF
:104ED0002830310558F091E02830310509F090E094
:104EE0002091E8002E772093E800CBCF819180932A
:104EF000F100615071092F5F3F4FE7CF8091C305EB
:104F0000882341F0853041F08091E80083FFBECFD7
:104F100081E0089582E0089583E00895FC01809186
:104F2000CA059091CB0586179707A0F0611571050A
:104F300029F48091E8008E778093E80090E0611575
:104F4000710551F4911108C08091E80082FF35C0CD
:104F500080E00895BC01F2CF8091C3058823C9F198
:104F60008530C9F18091E80083FD31C08091E8006F
:104F700082FDEACF8091E80080FFE1CF8091F300CD
:104F80002091F200382F6115710519F02830310594
:104F900058F091E02830310509F090E08091E80068
:104FA0008E778093E800CBCF84918093F100319687
:104FB000615071092F5F3F4FE6CF8091C305882371
:104FC00041F0853041F08091E80083FFBDCF81E062
:104FD000089582E0089583E00895982F973028F08F
:104FE0008F708093E90081E008959093E900242F69
:104FF000762F50E0981731F07091EC002091ED0081
:105000005091F00021FD02C09F5FE8CF3091EB008E
:105010003E7F3093EB003091ED003D7F3093ED000B
:105020003091EB0031603093EB007093EC002093F3
:10503000ED005093F0002091EE0027FDE5CF80E0D9
:1050400008958091C40587FF13C08091E80082FF16
:1050500006C08091E8008B778093E80004C08091BF
:10506000C3058111F2CF08958091C3058823D9F338
:105070008091E80080FFF8CF8091E8008E77ECCF38
:105080002091E4003091E50095E6A9012091EC0023
:10509000822F817020FF06C08091E80080FF06C04B
:1050A00080E008952091E80022FD1AC08091C30598
:1050B000882389F0853089F08091EB0085FD0FC051
:1050C0002091E4003091E50042175307F9F2915026
:1050D000E1F684E0089582E0089583E0089581E098
:1050E00008950E94E0280E94E828E0EEF0E0808128
:1050F00081608083E8EDF0E080818F77808319BC48
:10510000A7EDB0E08C918E7F8C9380818F7E808321
:105110001092C20508950F931F93CF93DF930E94BF
:10512000E0280E94E828C8EDD0E088818F77888346
:1051300088818068888388818F7D888319BC1092DC
:10514000C3051092BF051092C1051092C00500EE74
:1051500010E0F80180818B7F808388818160888363
:1051600042E060E080E00E94ED27E1EEF0E0808127
:105170008E7F8083E2EEF0E0808181608083808199
:1051800088608083F80180818E7F80838881806140
:105190008883DF91CF911F910F910895E8EDF0E0A2
:1051A00080818F7E8083E7EDF0E080818160808365
:1051B00084E082BF81E08093C2050E948B2808951D
:1051C000E8EDF0E080818E7F80831092E200089508
:1051D0001092DA001092E10008951F920F920FB61C
:1051E0000F9211242F933F934F935F936F937F936D
:1051F0008F939F93AF93BF93EF93FF938091E100C1
:1052000082FF0BC08091E20082FF07C08091E10025
:105210008B7F8093E1000E944C2B8091DA0080FF0D
:1052200019C08091D80080FF15C08091DA008E7F70
:105230008093DA008091D90080FF96C080E189BD1B
:1052400082E189BD09B400FEFDCF81E08093C305F2
:105250000E94AA248091E10080FF19C08091E200A1
:1052600080FF15C08091E2008E7F8093E2008091E4
:10527000E20080618093E2008091D8008062809398
:10528000D80019BC85E08093C3050E94BE2480919C
:10529000E10084FF2BC08091E20084FF27C080E101
:1052A00089BD82E189BD89B5982F917080FFFBCFC0
:1052B0008091D8008F7D8093D8008091E1008F7E0F
:1052C0008093E1008091E2008F7E8093E2008091E4
:1052D000E20081608093E2008091BF05882309F499
:1052E00049C084E08093C3050E94C7248091E100F7
:1052F00083FF29C08091E20083FF25C08091E100F7
:10530000877F8093E10082E08093C3051092BF0500
:105310008091E1008E7F8093E1008091E2008E7F9A
:105320008093E2008091E20080618093E20042E09D
:1053300060E080E00E94ED278091F000886080931B
:10534000F0000E94BB24FF91EF91BF91AF919F911C
:105350008F917F916F915F914F913F912F910F901E
:105360000FBE0F901F90189519BC1092C3050E9494
:10537000B82470CF8091E30087FD93E09093C3053C
:10538000B3CF1F920F920FB60F9211242F933F931A
:105390004F935F936F937F938F939F93AF93BF933D
:1053A000CF93DF93EF93FF93D091E900DF7080916B
:1053B000EC00C82FC17080FDC0E81092E900809118
:1053C000F000877F8093F00078940E94052A109265
:1053D000E9008091F00088608093F000CD2BCF70C1
:1053E000C093E900FF91EF91DF91CF91BF91AF9111
:1053F0009F918F917F916F915F914F913F912F91ED
:105400000F900FBE0F901F901895AAE2B0E0EBE04E
:10541000FAE20C94852F84EC95E02091F100FC01D8
:105420002193CF01F5E08C3C9F07B9F70E94F1244E
:105430008091E80083FF1EC18091C4059091C5054D
:105440009A3008F017C1E92FF0E0EC5FFE4C0C94A5
:105450005A2F803899F0823809F00CC18091C80524
:105460008F70873008F006C18093E9008091EB00CF
:1054700085FB882780F91092E90006C08091C0055D
:105480009091C105911182609091E800977F90936F
:10549000E8008093F1001092F1008091E8008E778F
:1054A000E5C0882309F4D3C0823009F0E3C08091BD
:1054B000C6058111D6C08091C8058F702FEF280FC7
:1054C000263008F0D7C08093E9002091EB0020FF40
:1054D000C8C0933031F48091EB0080628093EB0080
:1054E000C0C09091EB0090619093EB0021E030E020
:1054F00001C0220F8A95EAF72093EA001092EA0091
:105500008091EB008860EACF8111B4C01091C6058C
:105510001F778091E3008078812B8093E300809156
:10552000E800877F8093E8000E9421288091E800AE
:1055300080FFFCCF8091E30080688093E30082E0ED
:10554000111183E08093C30595C08058823008F024
:1055500091C08091C6059091C7058C3D23E09207CC
:10556000A1F583E08A838AE289834FB7F894DE014C
:10557000139620E03EE051E2E32FF0E05093570015
:10558000E49120FF03C0E295EF703F5FEF708E2F34
:1055900090E0EA30C0F0C7968D939D932F5F243141
:1055A00059F74FBF8091E800877F8093E8006AE257
:1055B00070E0CE0101960E9430278091E8008B7741
:1055C0008093E80057C0C096E7CF6091C8057091FE
:1055D000C905AE014F5F5F4F0E942226BC01892B97
:1055E00009F448C09091E800977F9093E800898182
:1055F0009A810E948E27E1CF8038E1F58091E80002
:10560000877F8093E8008091BF058093F10045CFAC
:10561000811130C09091C605923060F58091E8000C
:10562000877F8093E8009093BF050E942128809196
:10563000BF05882311F084E005C08091E30087FD59
:10564000FACF81E08093C3050E94D22413C08091D9
:10565000C605813079F481E0933009F080E08093D1
:10566000C1051092E9008091E800877F8093E800EF
:105670000E9421288091E80083FF0AC08091E80001
:10568000877F8093E8008091EB0080628093EB003D
:10569000AA96E3E00C94A12F0895CF938091C305BF
:1056A0008823A1F0C091E900CF709091EC00892F80
:1056B000817090FD80E8C82B1092E9008091E8008D
:1056C00083FD0E94052ACF70C093E900CF91089511
:1056D0005058BB27AA270E94802B0C94F32C0E94C1
:1056E000E52C38F00E94EC2C20F039F49F3F19F49F
:1056F00026F40C94E22C0EF4E095E7FB0C94DC2CE1
:10570000E92F0E94042D58F3BA1762077307840724
:10571000950720F079F4A6F50C94262D0EF4E0956B
:105720000B2EBA2FA02D0B01B90190010C01CA015B
:10573000A0011124FF27591B99F0593F50F4503E06
:1057400068F11A16F040A22F232F342F4427585FF8
:10575000F3CF469537952795A795F0405395C9F710
:105760007EF41F16BA0B620B730B840BBAF09150C8
:10577000A1F0FF0FBB1F661F771F881FC2F70EC067
:10578000BA0F621F731F841F48F48795779567953A
:10579000B795F7959E3F08F0B0CF9395880F08F026
:1057A0009927EE0F9795879508950E94B82C08F4D5
:1057B00081E008950E94EE2B0C94F32C0E94EC2CB7
:1057C00058F00E94E52C40F029F45F3F29F00C943A
:1057D000DC2C51110C94272D0C94E22C0E94042DEA
:1057E00068F39923B1F3552391F3951B550BBB2710
:1057F000AA2762177307840738F09F5F5F4F220F55
:10580000331F441FAA1FA9F335D00E2E3AF0E0E84B
:1058100032D091505040E695001CCAF72BD0FE2F95
:1058200029D0660F771F881FBB1F26173707480729
:10583000AB07B0E809F0BB0B802DBF01FF279358E1
:105840005F4F3AF09E3F510578F00C94DC2C0C949D
:10585000272D5F3FE4F3983ED4F3869577956795BF
:10586000B795F7959F5FC9F7880F911D9695879516
:1058700097F90895E1E0660F771F881FBB1F621735
:1058800073078407BA0720F0621B730B840BBA0BF3
:10589000EE1F88F7E09508950E940C2D88F09F5721
:1058A00098F0B92F9927B751B0F0E1F0660F771F44
:1058B000881F991F1AF0BA95C9F714C0B13091F03A
:1058C0000E94262DB1E008950C94262D672F782F85
:1058D0008827B85F39F0B93FCCF3869577956795FF
:1058E000B395D9F73EF490958095709561957F4F6B
:1058F0008F4F9F4F0895E89409C097FB3EF4909511
:105900008095709561957F4F8F4F9F4F9923A9F098
:10591000F92F96E9BB279395F69587957795679527
:10592000B795F111F8CFFAF4BB0F11F460FF1BC06B
:105930006F5F7F4F8F4F9F4F16C0882311F096E9FE
:1059400011C0772321F09EE8872F762F05C06623AC
:1059500071F096E8862F70E060E02AF09A95660F65
:10596000771F881FDAF7880F9695879597F908951E
:10597000990F0008550FAA0BE0E8FEEF1616170660
:10598000E807F907C0F012161306E407F50798F0C8
:10599000621B730B840B950B39F40A2661F0232BE1
:1059A000242B252B21F408950A2609F4A140A6955D
:1059B0008FEF811D811D089597F99F6780E870E042
:1059C00060E008959FEF80EC089500240A94161675
:1059D000170618060906089500240A9412161306DD
:1059E000140605060895092E0394000C11F488236B
:1059F00052F0BB0F40F4BF2B11F460FF04C06F5F87
:105A00007F4F8F4F9F4F089557FD9058440F551F5C
:105A100059F05F3F71F04795880F97FB991F61F030
:105A20009F3F79F087950895121613061406551FA7
:105A3000F2CF4695F1DF08C0161617061806991F13
:105A4000F1CF86957105610508940895E894BB2708
:105A500066277727CB0197F908950E94B82C08F4A0
:105A60008FEF08950E94452D0C94F32C0E94E52C95
:105A700038F00E94EC2C20F0952311F00C94DC2CD3
:105A80000C94E22C11240C94272D0E94042D70F309
:105A9000959FC1F3950F50E0551F629FF001729FD3
:105AA000BB27F00DB11D639FAA27F00DB11DAA1FE2
:105AB000649F6627B00DA11D661F829F2227B00D2F
:105AC000A11D621F739FB00DA11D621F839FA00DBA
:105AD000611D221F749F3327A00D611D231F849F0A
