:100000000C940A020C9427020C9442020C942702CE
:100010000C9427020C9427020C94711C0C94270258
:100020000C9427020C9427020C9427020C942702AC
:100030000C9427020C9427020C94F71C0C942702B2
:100040000C9427020C9427020C9427020C9427028C
:100050000C9427020C9427020C9427020C9427027C
:100060000C9427020C9427022B0014001A0008009D
:10007000150017001C0018000C00120013002A00C5
:10008000290004001600070009000A000B000D00FB
:100090000E000F0033003400E1001D001B000600BD
:1000A0001900050011001000360037003800D95C37
:1000B000E000E000E200E300105F2C002C00115F84
:1000C0005000510052004F0035001E001F0020005C
:1000D00021002200230024002500260027002A00FA
:1000E0004C003A003B003C003D003E003F002D002C
:1000F0002E002F003000310001004000410042007E
:10010000430044004500320064004B004E000100F3
:1001100001000100010001000100010001000100D7
:10012000AB00AA00A900AE000100005C015C010068
:1001300001000100010001000100010001004C006C
:1001400001000100010001000100010001000100A7
:100150000100010001000100010001000100010097
:100160000100010001000100010001000100010087
:100170000100010001000100010001000100010077
:100180000100010001000100010001000100010067
:100190000100010001000100010001000100010057
:1001A0000100010001000100010001000100010047
:1001B0000100010001000100010001000100010037
:1001C0000100010001000100010001000100010027
:1001D0000100010001000100010001000100010017
:1001E000010001000100010000000000000000000B
:1001F0002A2B280000000000000000000000000082
:1002000000000029000000002C1E3420212224348C
:100210002627252E362D3738271E1F20212223245E
:1002200025263333362E37381F0405060708090AFA
:100230000B0C0D0E0F101112131415161718191A96
:100240001B1C1D2F3130232D350405060708090A14
:100250000B0C0D0E0F101112131415161718191A76
:100260001B1C1D2F3130354C000000000000000029
:10027000000000000000000000000000000000007E
:100280000000000000000000000000007E0F00D40D
:10029000FFFFFFC70000007809025B00030100A018
:1002A000FA09040000010301010009210101000114
:1002B0002240000705810308000109040100020330
:1002C000000000092101010001222200070584032A
:1002D00008000107050403080001090402000103E6
:1002E000000000092101010001227B0007058303B2
:1002F0000800011201100100000008A80301AE026D
:100300000001020001180352006100720074005FD6
:100310000050006C0061006E0063006B0000001272
:100320000341006C006100620061006800750079A3
:10033000000000040309040660FF0961A1010962CD
:10034000150026FF00952075088102096315002617
:10035000FF00952075089102C005010902A10185E1
:10036000020901A1000509190129081500250195B7
:1003700008750181020501093009311581257F9534
:10038000027508810609381581257F950175088158
:1003900006050C0A38021581257F9501750881062E
:1003A000C0C005010980A101850319012AB7001504
:1003B0000126B700950175108100C0050C0901A147
:1003C00001850419012AA002150126A002950175D4
:1003D000108100C005010906A101050719E029E700
:1003E00015002501950875018102950175088103A5
:1003F0000507190029FF150026FF009506750881DD
:1004000000050819012905950575019102950175E9
:10041000039103C011241FBECFEFD8E0DEBFCDBFD4
:1004200011E0A0E0B1E0E0EAF2E402C005900D9234
:10043000AC38B107D9F723E0ACE8B1E001C01D92B8
:10044000AF33B207E1F70E94C7120C942F210C942E
:100450000000A82FB92F80E090E041E050EA6095BD
:1004600030E009C02D9182279795879510F0842759
:100470009527305EC8F36F5FA8F30895EADF8D9388
:100480009D930895CF93CFB7CF93DF93C3954B9BA5
:10049000E9F74B9B10C04B9B0EC04B9B0CC04B9B7A
:1004A0000AC04B9B08C04B9B06C0C0911603C39566
:1004B000C09316038EC06F93C0911503DD27C35EF2
:1004C000DC4F2F9365E54B9B03C02F916F91E1CFDC
:1004D0000F931F934F9320E040E15F9309B10C709D
:1004E00003FB27F93F9350E03BE039C01C704064A8
:1004F0002F77012F5F5F1EC0406819B11C702F77E6
:1005000052501FC0406409B12F770C70D1F15F5F6A
:1005100000C023C0406219B12F771C7091F15F5F5A
:1005200000C025C00C701027515012F45D5F000010
:10053000115027952C3F19B1C8F61C7001270150A6
:1005400027952C3FC8F64227499309B10C70102714
:100550004F73115027952C3FA8F64695469519B133
:100560001C7079F00127015027952C3F98F66B5AA3
:1005700060F3315009B1B0F600C012E01CBB002797
:100580001CC03B503195C31BD04012E01CBB0881FE
:10059000033C21F10B3411F1209112031981110F49
:1005A0001213EDCF4A81441F093679F10D3211F053
:1005B000013E29F74F7009F0042F00931B033F9170
:1005C0005F914F911F910F912F916F91CCB3C1FD0E
:1005D0005DCFDF91CF91CFBFCF91189520911B03B5
:1005E000222369F310911903112309F049C0343013
:1005F0000AF448C030931903209314031091150393
:100600003BE0311B309315033DC0009119030130CD
:10061000BCF50AE54F7049F43091190134FD33C03F
:1006200000931901CFEED2E032C0433059F044308C
:1006300091F03091FA0234FD26C00093FA02CBEF1C
:10064000D2E025C03091330334FD1DC00093330345
:10065000C4E3D3E01CC03091060334FD14C0009302
:100660000603C7E0D3E013C0052710E000C0000078
:100670000BB91AC0052710E0221F1DC010E021C0D1
:100680004AE502C032ED432FC4E1D0E032E01AB1B6
:100690001C605B9A0BB11AB95CE020E865E320FFAF
:1006A00005270BB9279517951C3FF0F66695B8F707
:1006B000B1F720FF05270BB9279517951C3FD0F6FA
:1006C0002795179517FF052700001C3F0BB9B0F6BB
:1006D00029913A9519F7037F10911A03110FC6510A
:1006E000D0400BB911F01093120312E01CBB08604C
:1006F0001AB1137F402F437F54E05A95F1F70BB99D
:100700001AB94BB95CCF81E0089581E008950C944B
:10071000850308950C9489031F93CF93DF9300D032
:1007200000D00F92CDB7DEB749835A836B833091E7
:100730008F0189819A8131111DC06623B9F022236E
:10074000A9F00E94A709182F682F89819A810E9419
:10075000530969817A81812F0F900F900F900F902C
:100760000F90DF91CF911F910C94F2190E947F0995
:10077000182FEFCF0E94A70969817A81EDCFFC0184
:10078000262F408151816281738184810C948C0376
:1007900081E00895CF93DF93EC0160E00E94BF03F6
:1007A000BE01DF91CF910C948A03E1E0F0E0DF011C
:1007B00002C0AA0FBB1F6A95E2F7BD01DF0102C0AC
:1007C000AA0FBB1F4A95E2F76A2B01C0EE0F2A95CC
:1007D000EAF7962F9823961302C08E2B0895E09582
:1007E0008E230895242F462F682F8091A2010E9406
:1007F000D5030C9410090C946D110C94701108958C
:100800000E94AC080E94FF032FEF84E39CE021507C
:1008100080409040E1F700C000000C941B1D0F9336
:100820001F93CF93DF938C0161E00E94BF03EC0123
:10083000B8010E94B6158823D9F1B801CE010E94F3
:1008400087038823A9F1B801CE010E94531B882396
:1008500079F1B801CE010E94A616882349F1B801AA
:10086000CE010E94BD1A882319F1F80182818823E4
:1008700061F0CA35FDE5DF0721F170F4C115ECE543
:10088000DE07A1F0CE3DDC45C9F0C801DF91CF9174
:100890001F910F910C948303CB358DE5D807A1F000
:1008A000CC35DD4591F70E94C70DEFCF0E940004C3
:1008B00080E0DF91CF911F910F9108950E94800EEB
:1008C000F7CF0E94D00DE1CF0E94D30DDECF0E9462
:1008D000551C0C9450050E9453050C94591CDF9232
:1008E000EF92FF920F931F93CF93DF93E82FF0E0E7
:1008F000E851FE4FD490282F26952695269530E076
:10090000F901E857FD4F0491877010E0082E02C0EE
:10091000159507950A94E2F701701127F901E85837
:10092000FD4FE490F12C082E02C0F594E7940A9450
:10093000E2F791E0E922FF24F901E859FD4FC49163
:10094000D0E002C0D595C7958A95E2F7C170DD2742
:100950000115110519F081EE0E94A505E114F104BD
:1009600019F086EE0E94A5058D2D0E943E06EF2807
:1009700019F086EE0E94F805012B19F081EE0E9415
:10098000F805CD2B51F08CE2DF91CF911F910F91A3
:10099000FF90EF90DF900C943E06DF91CF911F9176
:1009A0000F91FF90EF90DF900895EF92FF920F93D9
:1009B0001F93CF93DF93EC01162F0AE088818823E1
:1009C00009F454C0813009F04EC08981813099F416
:1009D0007E0122E0E20EF11C8A810E943E06E701C0
:1009E0002196812F815050F3EFE9FFE03197F1F725
:1009F00000C00000F7CF823041F47E0182E0E80EB3
:100A0000F11C8A810E94A505EACF833041F47E0162
:100A1000E2E0EE0EF11C8A810E94F805E0CF8430FE
:100A200011F02196DDCF2A81229690E080E0AE0180
:100A30004F5F5F4F2053330B2A30310548F0019749
:100A400078F2EFE9FFE03197F1F700C00000F7CF4F
:100A5000089FB001099F700D1124C901860F971FCF
:100A60002981EA01E4CF0E946F04BACFDF91CF91D0
:100A70001F910F91FF90EF90089560E00C94D504C2
:100A800008950C94400581E008950C944305089561
:100A9000CF93C82F0E9441058C2FCF910C94450510
:100AA00080E00C9448050E94AF1B0C9448050E94FE
:100AB000AF1B90918E01981721F080938E010C94BA
:100AC00048050895CF93DF93CDB7DEB72B970FB6C8
:100AD000F894DEBF0FBECDBF4F83588769877A87F2
:100AE0008B8761110E94150D1E821D8285E0FE011B
:100AF0003796DE01119601900D928A95E1F78C816F
:100B00009D81892B89F449815A816B817C818D81FA
:100B10009E810E94360C2B960FB6F894DEBF0FBE56
:100B2000CDBFDF91CF91089589819A8189238F3F2D
:100B300051F3CE0101960E94C8038111E4CFEBCF9F
:100B4000FC01808191810C94D409CF93C82F882314
:100B500009F44CC08CEF8C0F813AC8F48C2F0E94A2
:100B60006F18811143C06C2F809102019091030195
:100B70000E94121C882329F08C2F0E94D70C0E94FF
:100B8000350D8C2F0E94D00CCF910C94350D80E246
:100B90008C0F883048F4C77081E001C0880FCA9577
:100BA000EAF70E94F80CF0CFEBE5EC0FE33040F4ED
:100BB000F0E0E85BFE4F808190E0CF910C94D41B75
:100BC000E8E5EC0FE73150F4F0E0EE0FFF1FE65ED2
:100BD000FE4F80819181CF910C94EA1BC03F30F091
:100BE0008C2F0E944B13CF910C941E14CF9108951B
:100BF000882361F19CEF980F913A20F40E94D70C62
:100C00000C94350D90E2980F983050F4877091E075
:100C100001C0990F8A95EAF7892F0E94FE0CF0CF48
:100C20009BE5980F933020F490E080E00C94D41B67
:100C300098E5980F973120F490E080E00C94EA1B3F
:100C4000803F20F00E94A5130C941E1408951F935A
:100C5000CF93DF93182FEB010E94A505209731F465
:100C6000812FDF91CF911F910C94F8058FE99FE0C0
:100C70000197F1F700C000002197F0CF70E060E02D
:100C8000893311F460E570E00C942706882321F085
:100C90000E94F80C0C94350D0895882321F00E94D1
:100CA000FE0C0C94350D0895BF92CF92DF92EF9217
:100CB000FF920F931F93CF93DF936C01D62FC72F13
:100CC000FC011281F580F2949FE0F9220E94EE0C63
:100CD000E82E8823B9F0E12E1123A1F08C2F807F1C
:100CE000803421F080E28D0F8830D0F08091DA02DC
:100CF00082FD16C082E00E94960D0E94EE0C91E0EB
:100D0000E82EE926BC2EB2948FE0B822FBE0FB155A
:100D100008F468C0EB2DF0E0EF5CFE4D0C94BF20B2
:100D2000E12CF0CF0C2F0F70C07F11F00295007FE7
:100D3000112399F0002359F080E28D0F883010F0D4
:100D4000D11107C0802F0E94F80C0E94350D8D2F05
:100D500041C0802F0E94080DF8CF8D2F0E94F8050A
:100D6000002309F43FC080E28D0F883010F0D111CC
:100D700004C0802F0E94FE0C03C0802F0E940E0D25
:100D80000E94350D2FC00C2F0F70C07FC03211F0A4
:100D90000295007FDD2381F0D13009F469C0112371
:100DA00009F473C0FF2009F469C0F601858180FF52
:100DB000CECF8F70858362C08091DA0282FF38C007
:100DC000112359F0002329F0802F0E94F80C0E9473
:100DD000350D80E00E94A50505C080E00E94F80561
:100DE0000111C7CFEB2DE850FF0B349720F40E9480
:100DF000AF1B0E944805EE2009F44DC10E94EA0C89
:100E000080FD49C1F60112820E94E40C0E94210972
:100E1000C6010E946C080E94E40CDF91CF911F91E3
:100E20000F91FF90EF90DF90CF90BF900C942C0922
:100E3000112389F0F11006C00E94180D802B0E942A
:100E40004606D0CF21E0F212F7CF0E94180D802B7A
:100E50000E941E0DC7CFF11006C00E942B0D802FDF
:100E60000E944D06BFCF31E0F31609F4BBCFF5CF9A
:100E7000112331F085E08F1508F4B4CF802FDFCF38
:100E800094E09F1508F4AECFEACFFF2041F3D933A9
:100E900049F4FFEF27EE33E0F15020403040E1F716
:100EA00000C000008D2F0E94F8059CCF8C2F8695E6
:100EB0008695837069F0813009F094CF8D2F9C2F37
:100EC0009370111102C090E080E00E94EA1B8ACF6B
:100ED0008D2F9C2F9370111102C090E080E00E9432
:100EE000D41B80CF8D2F112329F00E944B130E9419
:100EF0001E1478CF0E94A513FACF8C2F837079F53A
:100F0000111170CF4D2F429546954770440F440FF5
:100F10008D2F8F70042E01C0880F0A94EAF72D2FB1
:100F20002071D4FF07C02FE030E001C0220F4A95A6
:100F3000EAF72095C695C695C370822BC23049F05A
:100F400058F4C13019F00E9402094CCF0E94FD08EC
:100F500049CF0E94070946CF0E94FB0843CF8695E0
:100F6000112311F08C2F8170882309F43BCF4D2F72
:100F7000429546954770440F440F8D2F8F70042E75
:100F800001C0880F0A94EAF72D2F2071D4FF07C003
:100F90002FE030E001C0220F4A95EAF72095C69570
:100FA000C695C370822BC23049F058F4C13019F095
:100FB0000E94480917CF0E94430914CF0E944D098F
:100FC00011CF0E9410090ECFCF70112329F08C2F62
:100FD0000E9421098D2F33CF8D2F0E944D068C2F1B
:100FE0000E942C09FFCED23F51F160F4D03FB9F0FE
:100FF000D13F81F0112309F449C0F110A8CE8C2F04
:101000008F7121C0D33F11F1D43FA1F78091DA0253
:1010100082FF26C08C2F8F71112311F314C011236E
:1010200049F084E08F1508F4DDCE8C2F8F710E947B
:101030003809D8CE95E09F1508F4D4CEF6CF8C2F82
:101040008F711111CDCF0E942109CCCE112329F02F
:101050008C2F8F710E941909C5CE0E941609C2CE2D
:10106000112349F0CF718C2F0E94210963E08C2F4E
:101070000E947B0DB7CE81E00E94960DE1E0EF1556
:1010800008F0B0CE82E00E94960DACCEF110FFCEFB
:101090008C2F8F71A5CFDF91CF911F910F91FF9072
:1010A000EF90DF90CF90BF9008950F931F93CF9351
:1010B000DF93EC01688179818A810E94DE098C01CD
:1010C0000E9452090E94FA08B801CE01DF91CF9127
:1010D0001F910F910C945406CF93DF93EC018B81F9
:1010E0009C81892B29F08881998189238F3F59F42C
:1010F000DF91CF910895CE010E945508CE01DF9176
:10110000CF910C94CA03CE010E940F048111F3CF3A
:101110000E94EE0C882361F38A81882349F3809131
:10112000DA0282FDE5CF82E0DF91CF910C94960D3B
:1011300090E080E00E94D41B90E080E00E94EA1BD7
:101140000E94150D0E94350D0E9445150C941E1429
:101150000E94DE0C0C9498080E94050D0C94A808BF
:1011600092959F70963091F058F4925F9F709230F4
:1011700058F4803F19F030F4883E30F481E008954F
:101180009A5FF4CF843FD1F380E00895883EB0F3B6
:10119000813FD1F7F3CFFC01808191810E94D40976
:1011A0000C94B008CF93DF9300D000D00F92CDB74E
:1011B000DEB70F900F900F900F900F90DF91CF91AF
:1011C0000895CF93DF9300D000D000D0CDB7DEB725
:1011D00026960FB6F894DEBF0FBECDBFDF91CF913C
:1011E000089508950C94F1080E94F2088093A301D9
:1011F0000C94980808950C94F4089091A301892BFD
:101200000C94F4089091A30189230C94F408909114
:10121000A30189270C94F4080C94F1080C940C0990
:101220000E940E098093A2010C94980880E00C940F
:10123000100991E001C0990F8A95EAF7892F0C9463
:10124000100921E030E001C0220F8A95EAF7809171
:10125000A201822B0C94100921E030E001C0220F82
:101260008A95EAF720958091A20182230C941009B7
:1012700021E030E001C0220F8A95EAF78091A201B7
:1012800082270C9410099091A201892B0C941009CB
:101290009091A20189230C9410099091A2018927B1
:1012A0000C94100908952CE0929F800D1124982F22
:1012B000977041E001C0440F9A95EAF786958695AC
:1012C000869593E0899FF0011124E057FE4F90E04E
:1012D00080E070E05191DF0111979B01082E02C060
:1012E000369527950A94E2F7217021952527242326
:1012F00025272C9301968330910561F708952CE002
:10130000929F800D1124982F9770869586958695CB
:1013100023E0829FF0011124E057FE4F50E040E0AF
:1013200080E0219130E0092E02C0369527950A947D
:10133000E2F721703327042E01C0220F0A94EAF746
:10134000822B4F5F5F4F4330510559F70895CF927D
:10135000DF92FF920F931F93CF93DF936C01009165
:10136000A2018091A301082BC7E0D0E010E0FC2E81
:10137000C8010C2E02C0959587950A94E2F780FD6E
:101380000CC02197A0F7F12C8F2DDF91CF911F91E9
:101390000F91FF90DF90CF900895B6018C2F0E949F
:1013A0005710019771F3F0CFCF93DF93EC010E94B8
:1013B000A709BE01DF91CF910C9457101F93CF93D3
:1013C000DF93EB0190918F01992331F0CB01DF91F5
:1013D000CF911F910C94D409882379F0CB010E94FE
:1013E000A709182F682FCE010E945309BE01812F33
:1013F000DF91CF911F910C945710CB010E947F0970
:10140000182FF4CF1F93CF93DF93C091A40116E060
:101410008091A5018C1304C0DF91CF911F91089595
:10142000D0E01C9FF0011D9FF00D1124EA55FE4FE6
:101430004081518162817381848195810E94E1089C
:101440002196C770E5CF4091D6015091D7016091A8
:10145000D8017091D9018091DA019091DB010C944F
:10146000E108FF920F931F93CF93DF938091DB01ED
:10147000807FD1F48091D8018823B1F08091A401BC
:101480001091A5016091D6017091D701A091D90169
:10149000B091DA01062F0723C0910001D09101011C
:1014A00096E0F92E181306C0DF91CF911F910F918E
:1014B000FF90089590E0109711F00F3F19F40196F6
:1014C0008770F0CFF89E9001F99E300D1124F9013C
:1014D000EA55FE4F41814713F2CF40814613EFCFCB
:1014E00042814111ECCF438154814A1B5B0B4C1765
:1014F0005D0728F78091DB018F7080618093DB01AD
:10150000F901E555FE4F80818F708061808386ED03
:1015100091E00E946C08DF91CF911F910F91FF9095
:101520000C94020AAF92BF92CF92DF92EF92FF9299
:101530000F931F93CF93DF93CDB7DEB761970FB6AD
:10154000F894DEBF0FBECDBF8C0185E0F801DE014F
:101550001D9601900D928A95E1F7F801E28086EDE3
:10156000C82E81E0D82E6091D9017091DA01611501
:10157000710509F45FC19091D6012091D701892F9F
:1015800082238F3F09F456C140815181A380B480EA
:10159000F090D801F501E61BF70BBF01E0910001C7
:1015A000F0910101FF2009F4F6C08091DB01382F92
:1015B000307F6E177F0708F0AFC0311179C0FE2C65
:1015C000251323C0941321C0E1101FC08F708061C8
:1015D0008093DB010E94230AC6010E946C0880915F
:1015E000DB01F80185838F2D61960FB6F894DEBF7D
:1015F0000FBECDBFDF91CF911F910F91FF90EF9064
:10160000DF90CF90BF90AF900895AB2829F0842F42
:1016100085238F3F09F027C180E0F82FF170DF2E7E
:1016200080FF3CC08091A4012091A50136E0821387
:1016300015C04D875E878D859E850E94D409292F10
:1016400022952F702230F0F0243018F59F70F1F0C1
:10165000F8019581907FD1F4D12C1EC090E0389F85
:10166000F001399FF00D1124EA55FE4F6181651399
:1016700006C06081641303C062816E110FC00196C1
:101680008770D5CF9F7011F0882331F3805E88304A
:1016900018F3C8010E946C08FD2CA5CFEE2009F4B8
:1016A000A2CF8091DB0181608093DB01F12C9BCF85
:1016B000251306C0941304C0F801EE2009F487C076
:1016C000C8010E94CB08882319F1EE2009F180910E
:1016D000DB01803270F02091D6013091D70138873C
:1016E0002F831986BB86AA868C87CE0107960E9417
:1016F0006C0886E0F801A6EDB1E001900D928A95A4
:10170000E1F70E94310A0E94230AFF24F3946BCF71
:10171000C8010E946C08F9CF311113C07A2DB98A23
:10172000A88A6E2D89890E94D20886ED91E00E94D8
:101730006C0886E0F60111928A95E9F70E94230A67
:10174000B5CF25130FC094130DC0E1100BC0F801E5
:101750008583C8010E946C0886E0F60111928A9583
:10176000E9F741CFC8010E94CB08882389F2EE2017
:1017700079F28091DB01803208F4BBCF2091D60151
:101780003091D7013A8329831B82BD82AC828E833C
:10179000CE010196ACCF6E177F0708F03EC0FE2C3D
:1017A000EE2009F4B5CF25132AC0941328C08091E8
:1017B000DB0180FD1BC0982F907FC1F0F80185836D
:1017C000903F31F0982F907F905F8F70892B8583A9
:1017D000C8010E946C0886E0F801A6EDB1E0019016
:1017E0000D928A95E1F70E94230AFDCE86E0F8016A
:1017F000A6EDB1E001900D928A95E1F7F4CEC80113
:101800000E94CB08811175CF8091DB0181608093AC
:10181000DB01C8010E946C08E6CE7A2DB98AA88A3D
:101820006E2D89890E94D20886E0F60111928A9570
:10183000E9F7D9CFEE2009F46BCFC8010E94CB089D
:10184000F82E882309F464CF86E0F801A6EDB1E014
:1018500001900D928A95E1F786ED91E00E94A00536
:101860000E94310AC0CF81E08E25D7CE1F93CF933F
:10187000DF93CDB7DEB72C970FB6F894DEBF0FBE5F
:10188000CDBF4F83588769877A878B879C87CE0126
:1018900007960E94920A882369F08A859B85892B86
:1018A00039F04F815885842F85238F3F09F071C00F
:1018B00016E05FC086E0FE013796DE0111960190CA
:1018C0000D928A95E1F78A859B85892B89F38F8113
:1018D000988589238F3F61F32091A50130E0C901EC
:1018E0000196877099274091A4014817190671F451
:1018F0000E94AC081092A5011092A40186E0E6EDCA
:10190000F1E0DF011D928A95E9F7D2CF96E0929F30
:10191000D001939FB00D1124AA55BE4FFE01319600
:1019200001900D929A95E1F78093A5010E94020A19
:10193000BFCF819FC00111248A559E4F0E94920AF9
:101940008823E9F0E091A4011E9FF0011124EA55DB
:10195000FE4F4081518162817381848195810E9413
:10196000E1088091A40190E0019687709927809307
:10197000A4018091A4019091A5018913DACF2C963E
:101980000FB6F894DEBF0FBECDBFDF91CF911F9190
:10199000089569857A858B859C850E94E10888CFAA
:1019A000682F80910201909103010C94481C682FCC
:1019B00080910201909103010C944A1C80910201D4
:1019C000909103010C944C1C8091E40185958595C0
:1019D000859508958091E401877008959091E401C0
:1019E000977081E009F480E008958091EF010895F7
:1019F0009091EF01892B8093EF010895809590914C
:101A0000EF0198239093EF0108951092EF0108954C
:101A10009091EE01892B8093EE010895809590912D
:101A2000EE0198239093EE0108951092EE0108952F
:101A30008091E501089508950C941B0D9091DA02B0
:101A400092FD08C09091E501981721F08093E5017F
:101A50000C941C0D08958091E501882329F01092C3
:101A6000E50180E00C941C0D0895CF93DF93E09185
:101A70000201F09103018091EF018083E091020166
:101A8000F091030180819091EE01892B80839091E8
:101A9000E501992381F0E0910201F0910301808139
:101AA000892B808380910201909103010E94001C88
:101AB00081110E942B0DC0910201D091030148E0D9
:101AC00050E06CED71E0CE010E94E020892B69F0BE
:101AD00088E0FE01ACEDB1E001900D928A95E1F74E
:101AE000CE01DF91CF910C94BB1BDF91CF91089574
:101AF00008950C94780D9091DA0292FD10C098E050
:101B0000899F90011124622B6093E4010E942109B6
:101B10008091E4018595859585950C94790D0C94BB
:101B200021091092E40180E00C94790D9091E40178
:101B3000809589238093E401282F277091F4282F22
:101B4000082E000C330B9217130659F09091DA020D
:101B500092FD07C08595859585950E942C090C946A
:101B6000910D08959091DA0292FB222720F928170F
:101B700069F080FB92F99093DA028091D9029091FA
:101B8000DA020E94FD0D82E00C94960D089580917A
:101B9000DA0282FB882780F991E089270C94B20D44
:101BA00081E00C94B20D80E00C94B20D6FEF7FEFEA
:101BB00090E080E00C94192190E080E00E94F520F4
:101BC000893E9E4F11F40C94531580E0089582E0F5
:101BD00090E00C94ED2083E090E00C94ED20CF9306
:101BE00084E090E00E94ED20C82F82E290E00E9405
:101BF000ED20982F8C2FCF910895CF93C92F682F68
:101C000084E090E00E94FB206C2F82E290E0CF9174
:101C10000C94FB20AB01BC018FE090E00C940D21F3
:101C2000AB01BC0183E190E00C940D2160E070E019
:101C3000CB010C94100E60E070E0CB010E940A0E04
:101C40000C94160E69EE7EEF90E080E00E94192160
:101C500060E082E090E00E94FB2060E083E090E0A2
:101C60000E94FB201092A30160E084E090E00E94BB
:101C7000FB2060E082E290E00E94FB2060E085E0D3
:101C800090E00E94FB2060E086E090E00E94FB2054
:101C90006FEF87E090E00E94FB2040E050E0BA0147
:101CA00088E090E00E940D2160E08DE090E00E94CD
:101CB000FB2040E050E0BA0188E190E00E940D2155
:101CC00060E087E190E00E94FB2040E050E0BA0134
:101CD0008CE190E00E940D2170E060E080E290E0F5
:101CE0000E94192140E050E0BA0188E190E00E9492
:101CF0000D2180E00E946C150E949A150C941B0E19
:101D00000C94220E682F8EE090E00C94FB200E9431
:101D1000DC1C6093FC017093FD018093FE019093A5
:101D2000FF016093F8017093F9018093FA01909399
:101D3000FB010895089508950C949B0E08950C944A
:101D40009E0E85E391E10E94A51B0E949A0E0C94C1
:101D50009C0E81E008950C94A90E089508950E94A8
:101D6000AD0E0C94AE0E0E9452110C9447050E94C9
:101D7000C71C0E94A9150E9427120E94B30E0C9442
:101D80009F0E7F928F929F92AF92BF92CF92DF92DF
:101D9000EF92FF920F931F93CF93DF93CDB7DEB7F0
:101DA0002A970FB6F894DEBF0FBECDBF0E943C123B
:101DB000A82E81110E94870E50EF852E51E0952E9E
:101DC00010E000E0702E802F0E9472116C01F4016F
:101DD000E190F1904F01E816F90609F453C08091A3
:101DE000000281FD0E947B11C7018C259D25B12C2D
:101DF000EE24E394F12C9C012E213F21232BE1F1D1
:101E00000E94AB0E8823A9F0BE827F82CE20DF2005
:101E100081E0CD2809F480E088870E94D01C816091
:101E2000782F9A8789874E815F8168858A850E948D
:101E30006205000F111FF801E051FE4F8081918172
:101E4000E826F926F182E08281E0A11001C080E05D
:101E50002A960FB6F894DEBF0FBECDBFDF91CF91AB
:101E60001F910F91FF90EF90DF90CF90BF90AF90B8
:101E70009F908F907F900895B394EE0CFF1CFCE030
:101E8000BF12B9CF0F5F1F4F0430110509F09ACF71
:101E90008FEF89838A831B820E94D01C8160782FF8
:101EA0009D838C8349815A816B818D810E9462055B
:101EB000CBCF0E94C10E0E9439140C945705CF93CA
:101EC000DF930E945B10EC01811521E5920708F079
:101ED00042C0811530E5930708F09DC0883E91050A
:101EE00030F5803E910508F092C0883A910588F45B
:101EF000853A910508F084C08130910509F487C0C6
:101F0000009709F484C0049708F081C0D0E0C0E0D5
:101F10007EC08F3B9105D0F7C85AD0E0CC0FDD1FB3
:101F2000C55BDE4F0990D881C02DD46470C0811587
:101F3000904250F4C11581E0D80708F068C0C03F56
:101F4000D10520F3D06563C0C11590E4D907F0F244
:101F5000DF70D06A5CC0811525E5920700F5811518
:101F600034E5930708F08BC0811543E5940708F02A
:101F700073C0C11582E5D80708F469C0CE0183702B
:101F8000992721E030E002C0220F331F8A95E2F743
:101F9000C695C69580E2C89FE001112454C0C115C2
:101FA00099E5D907A8F4C11528E5D20708F06CC057
:101FB000C11536E5D30708F0A9CF8C2F0E94F21087
:101FC000C82FD0E0DC2FCC27CC27DF71D0621FC018
:101FD000C1154AE5D40708F45CC0CE0190568115BE
:101FE000904208F093CF8D2F8F710E94F21090E0F5
:101FF000982F882788279F719C012C2BE901E6CF19
:10200000C55AD0E0C758DE4FC881D0E0D064CE01B9
:10201000DF91CF910895E4E096958795EA95E1F7F1
:1020200083702C2F26952695237040E2249F9001E3
:102030001124382B8C2F8370C1E0D0E002C0CC0F6C
:10204000DD1F8A95E2F7C22BD32BDC68E0CFDC2FB3
:10205000CC27C16FD06ADBCF8370992721E030E0B5
:1020600002C0220F331F8A95E2F7C695C69590E20B
:10207000C99FE0011124C22BD32BDA68C8CFD82F17
:10208000CC27C46FD06AC3CFDC2FCC27C06FD06AF7
:10209000BECF8C2F8F700E94F21034E0D695C7957A
:1020A0003A95E1F7CF709C2FEC01D069B0CF0E9438
:1020B000F2190C945F0F82389105B1F1B0F48133BD
:1020C000910509F475C048F48932910509F469C095
:1020D0008A32910509F473C008958533910509F496
:1020E00059C08933910501F10895833E9105A9F105
:1020F00038F4803E9105F9F0823E910549F108954A
:10210000863E9105A9F1873E9105C9F1843E91056E
:1021100019F52091DA0221FF1FC08091D90284FDB8
:1021200014C087EE90E008952091D9022370A1F0A9
:1021300080EE90E008952091D90220FD47C03091B3
:10214000DA0230FF09C024FF44C090E080E004C000
:102150002091D90222FDF7CF08952091D90222FDC6
:102160003BC03091DA0230FDE3CF24FFF5CFEDCF55
:102170002091D90223FFF0CF24FDE7CFD2CF2091C9
:10218000D90223FD2CC03091DA0231FFEECF84EE6C
:1021900090E008952091D90225FFDECF89E290E0FA
:1021A00008952091D90225FFD7CF85E390E00895C7
:1021B0002091D90226FFD0CF8AE290E008952091A5
:1021C000D90226FFC9CF81E390E0089589E390E02A
:1021D000089583EE90E0089582EE90E0089586EEF3
:1021E00090E008959091D90292FF06C0282F28719F
:1021F0002830F9F4877F846093FF06C0282F287168
:102200002831F1F4877E84612091DA0220FF06C034
:10221000382F38713830D9F4877F816021FF06C0AC
:10222000282F28712831D1F4877E816194FD877E23
:102230000895282F24712430F9F68B7F8860DCCF35
:10224000282F2471243101F78B7E8861DDCF382F50
:102250003171313019F78E7F8860E0CF282F2171DE
:10226000213121F78E7E8861E1CF80E008950C94C2
:10227000D60D0E943C122FEF86E791E0215080405E
:102280009040E1F700C000000E943C1280E00E94F4
:10229000721180FF04C00E9437110C941B1D089519
:1022A0000C9439110E94DC0D811102C00E94800E35
:1022B0000E94E70D809300020E94EF0D9093DA02D6
:1022C0008093D9020E9450110E94EB0D0E94FB08DE
:1022D0008091A2010C940E0908950C946C1108953C
:1022E0000C946F11E82FF0E0EE0FFF1FED51FD4F42
:1022F000808191810895089580EA8A95F1F7089583
:1023000000C008950C947C11F894E82FE295EF70CA
:10231000F0E031A1282F2F7081E090E001C0880FFC
:102320002A95EAF7982F9095932391A392A1892B50
:1023300082A378940895CF93DF9381E90E9484115A
:1023400084E90E94841185E30E94841184E60E943E
:102350008411CCE7D1E089918F3F11F00E94841164
:1023600081E0C838D807B9F7DF91CF910895AF92CF
:10237000BF92DF92EF92FF920F931F93CF93DF9361
:102380008C01D62EC62FD0E0CE0188579E4F7C01FF
:10239000FC0120812F3F09F44DC0F894E22FE29513
:1023A000EF70F0E031A12F7081E090E001C0880F64
:1023B0002A95EAF7932F982B91A392A180958923D0
:1023C00082A378940E948011ECE7F1E048E851E0A4
:1023D00021E030E0B12CA12C61916F3FA9F1A62F33
:1023E000A295AF70B0E090968C9190E06F7002C0B3
:1023F000959587956A95E2F780FD26C0C901A82AC0
:10240000B92A220F331F4E175F0731F7F70180817A
:102410008F3F11F00E94841161E0A114B10409F40E
:1024200060E08D2D0E948211CC0FDD1FC00FD11FE7
:10243000B982A882DF91CF911F910F91FF90EF9009
:10244000DF90BF90AF90089590E080E0D8CF0E94D9
:102450009B1188E0E3EEF2E0DF01982F1D929A9540
:10246000E9F7EBEDF2E0DF011D928A95E9F784E0F0
:102470000E9487120C94FB03FF920F931F93CF933C
:10248000DF93CDB7DEB728970FB6F894DEBF0FBE47
:10249000CDBF8E010F5F1F4F88E0F80111928A9522
:1024A000E9F7F12C6F2DC8010E94B711F394F4E005
:1024B000FF12F8CF48E050E0B8018BED92E00E94A7
:1024C000E020FF24F394009709F4F12C892B41F0CC
:1024D00088E0F801ABEDB2E001900D928A95E1F74A
:1024E0002F2D44E063EE72E08BED92E00E948812A3
:1024F0000E94FD038F2D28960FB6F894DEBF0FBE05
:10250000CDBFDF91CF911F910F91FF900895089556
:10251000FF920F931F93CF93DF93F82E092F162F5F
:10252000D72FC42F222349F081E0809303020E9419
:10253000D01C9093020280930102809103028823B1
:10254000A1F080910102909102020E94E81C05977F
:1025500060F0EF2DF02FA12FBD2F90E080E0D0E0B4
:102560008C179D0744F010920302DF91CF911F91C9
:102570000F91FF900895219131912D933D930196F4
:10258000EFCF0E94401D0E94B70E0C94511D0E9477
:10259000701C0E94301D0E94A10E0E94C1120E9458
:1025A0005F1D0E94AF0EFBCF80910A0280FF0DC01D
:1025B0006091090170E0660F771F6038710570F552
:1025C0006115710569F1862F089581FF07C060913B
:1025D000090184E0689FB0011124EFCF60910901E7
:1025E00082FD0AC0809109028823A9F02091080188
:1025F00060910901821710F088E0ECCF869FC0013E
:10260000112433E0880F991F3A95E1F7622F70E0AB
:102610000E94AB20D2CF68E070E0D5CF8FE708955D
:1026200081E0089580910A0280FF0CC0609105014D
:1026300070E075956795759567956115710549F118
:10264000862F089581FF06C06091050170E07595A1
:102650006795F3CF6091050182FD0BC09091080250
:102660009923A1F06091040180910501961738F03B
:10267000682F70E06038710500F38FE70895899F37
:10268000C001112470E00E94AB20F4CF61E070E043
:10269000D7CF81E00895803F31F40E94D412819514
:1026A00080930E020895813F19F40E94D412F8CF4E
:1026B000823F31F40E94D412819580930D020895D7
:1026C000833F19F40E94D412F8CF893F29F40E9465
:1026D000121380930F0208958A3F21F40E9412136F
:1026E0008195F7CF8B3F31F40E941213819580932F
:1026F000100208958C3F19F40E941213F8CF9CE049
:10270000980F953070F4845F990B21E030E001C0A0
:10271000220F8A95EAF780910C02822B80930C029B
:1027200008958D3F31F480910A02816080930A02FE
:1027300008958E3F21F480910A028260F7CF8F3F87
:10274000B9F780910A028460F1CF40910D02803F79
:1027500059F480910E0287FF0DC010920E024111B4
:102760000BC01092090208C0813F81F480910E02D3
:1027700018169CF3442381F080910F02909110026F
:10278000892B09F05AC0109208020895823F49F43B
:1027900047FFF0CF10920D0280910E028111ECCF15
:1027A000E0CF833F19F41416ACF3E4CF90910F02FD
:1027B000893F29F41916F4F610920F02DBCF8A3FF5
:1027C00019F497FFD7CFF8CF909110028B3F29F4DF
:1027D00097FFD0CF10921002CDCF8C3F19F419166D
:1027E000CCF3C8CF9CE0980F953090F4845F990BA0
:1027F00021E030E0B90102C0660F771F8A95E2F749
:10280000CB01809590910C02892380930C02B2CF6A
:102810008D3F31F480910A028E7F80930A02AACF05
:102820008E3F21F480910A028D7FF7CF8F3F09F010
:10283000A1CF80910A028B7FF0CF08950E94D01C17
:102840009C0190910D0280910E02982B21F0309303
:1028500007022093060290910F0280911002982B9C
:1028600021F030930502209304028BE092E00C9457
:10287000C61BEF92FF920F931F93CF93DF9300D06D
:1028800000D000D0CDB7DEB786E0EBE0F2E0DE01AD
:10289000119601900D928A95E1F7E0900D02F0906B
:1028A0000E0200910F021091100210920D02109270
:1028B0000E0210920F02109210028E2D8F2991F0AD
:1028C00080910602909107020E94E81CAC01909151
:1028D0000902992309F43FC080910A018417150663
:1028E00008F447C0802F812B91F0809104029091D1
:1028F00005020E94E81CAC0190910802992309F49A
:1029000077C0809106018417150608F47FC0809176
:102910000D0290910E02892B90910F02892B9091BC
:102920001002892B11F00E941E1486E0FE013196E0
:10293000ABE0B2E001900D928A95E1F726960FB6D2
:10294000F894DEBF0FBECDBFDF91CF911F910F91E5
:10295000FF90EF90089520910B018AE0289F90014D
:1029600011242417350708F0BDCF9F5F909309020B
:1029700002C09F3FD1F7EE2059F00E94D4129FEF82
:102980001E140CF491E0899F802D112480930D0278
:10299000FF2059F00E94D4129FEF1F140CF491E015
:1029A000899F802D112480930E0230910D023323D4
:1029B00009F498CF20910E02222309F493CF45EB1E
:1029C0003403C0011124992359F090930D0245EB73
:1029D000240390011124332339F030930E0282CF67
:1029E00081E080930D02F3CF81E080930E027ACFD5
:1029F000209107018AE0289F9001112424173507B0
:102A000008F085CF9F5F9093080202C09F3FD1F7E7
:102A1000002359F00E9412139FEF10160CF491E05E
:102A2000899F802D112480930F02112359F00E9459
:102A300012139FEF11160CF491E0899F802D112441
:102A40008093100230910F02332309F460CF20915C
:102A50001002222309F45BCF45EB3403C00111249B
:102A6000992359F090930F0245EB24039001112410
:102A7000332339F0309310024ACF81E080930F0264
:102A8000F3CF81E08093100242CF86E0EBE0F2E0EA
:102A9000DF011D928A95E9F710920902109208024F
:102AA00010920A02089583E290E00E94ED208232A3
:102AB00089F484E290E00E94ED20823059F485E2AE
:102AC00090E00E94ED2091E0823209F090E0892FA1
:102AD0008170089580E0FCCFCF93DF93D82FCFEFA4
:102AE0008111C2E26C2F83E290E00E94FB206FEF25
:102AF000D11162E084E290E00E94FB206C2F85E21D
:102B000090E0DF91CF910C94FB20089586E290E055
:102B10000E94ED20682F70E090E080E00895089515
:102B2000CF93C62F0E948F156C2F86E290E0CF9135
:102B30000C94FB2080E00E946C1560E070E0CB01FB
:102B40000E9490150E946A190E94561A81E00C9406
:102B50006C150E9485150E9486150E948F150E9493
:102B60005315811102C00C949A150895CF93FB015F
:102B7000C281CC2309F19C0122513F45203131050E
:102B800020F582510E94661AC0E08C2FCF910895E3
:102B900081E00E94210943E062E081E00E94F203AB
:102BA000F3CF81E00E942C0943E062E081E00E94C3
:102BB000F203EBCF82E0F6CF8031FFE59F0789F388
:102BC00081319F45B9F3C1E0E0CF8031EFE59E0749
:102BD000F9F281319F45C9F682E0DBCF2FEFFC018E
:102BE00020830895EF92FF920F931F93CF93DF936B
:102BF000EC01062FE881E150E33108F05EC0F0E01F
:102C0000E35CFE4D0C94BF20198289E08A83602F1B
:102C1000CE01DF91CF911F910F91FF90EF900C9417
:102C2000521E8981823069F0833071F08130D9F48D
:102C30000E94DC1C0E94C5206A837B838C839D8359
:102C4000E6CF0E948615F6CF7E0110E0812F0E940C
:102C50007211F701928383831F5FF2E0EF0EF11C84
:102C60001430A1F7D4CF602FCE010E94EE15CFCF44
:102C700089818230C1F76A817B818C819D810E942C
:102C8000C5200E949015C3CF4B816A8189810E9423
:102C90003C199827892798279D838C83B8CF2C814E
:102CA0003D813227232732274B816A8189810E9407
:102CB0005519ADCF0E946A19AACF8FEF8883A7CF8D
:102CC0000E94FF198983A3CF0E94011A98278927A0
:102CD00098279A8389839BCF6B8170E089819A8141
:102CE000AE014C5F5F4F9827892798270E94041AEE
:102CF0008ECF6B8170E089819A81AE014C5F5F4F0E
:102D00009827892798270E942B1A81CF0E94561A4C
:102D10007ECF0E942A19D6CF6B8170E089819A817B
:102D2000AE014C5F5F4F9827892798270E94A21910
:102D30006ECF6B8170E089819A81AE014C5F5F4FED
:102D40009827892798270E94C81961CFCF93DF93CE
:102D5000EC01FB018281882309F433C1C330FDE516
:102D6000DF07C0F5CA3F9CE5D90730F49E01225029
:102D70003C4524313105B0F50E94EF0D9093DA0205
:102D80008093D902C1318CE5D80709F4EEC008F070
:102D900069C0C930ECE5DE0709F4D5C0C8F5C53017
:102DA0008CE5D80709F4C7C000F5C330ECE5DE07B1
:102DB00009F4B9C008F0BBC0C230DC4509F4ADC0AD
:102DC0008091D9029091DA020E94FD0D0E94AC0818
:102DD00080E008C0C136EDE5DE0771F2C53AFDE5D9
:102DE000DF0751F2DF91CF9108958091D90280627F
:102DF000C7309CE5D90709F493C08091D90280615E
:102E0000C830DC4508F48CC08091D902806488C049
:102E10008091D9028B7FCD30FCE5DF0709F480C0BB
:102E200098F48091D9028E7FCB309CE5D90709F4C4
:102E300077C08091D9028C60CC30DC4508F470C03A
:102E40008091D9028D7F6CC08091D9028F7ECF3066
:102E5000FCE5DF0709F464C008F47BC08091D90267
:102E60008F7D5EC0CD3F9CE5D90709F47AC050F54F
:102E7000C531FCE5DF0709F486C098F48091D902DA
:102E8000837FC3319CE5D90709F44AC008F471C0B7
:102E90000E94AC089091D902892F97FB87F980583E
:102EA0003FC0CB3FFCE5DF0709F449C008F055C03F
:102EB0008091DA028160CA3FDC4509F081CF8093BE
:102EC000DA027ECFC130EDE5DE0709F468C0A8F470
:102ED000CF3F8CE5D80709F452C08091DA028360B5
:102EE000C115DD4560F38091DA02982F90959170BD
:102EF0008E7F892B90FB81F9E2CFC136EDE5DE07AD
:102F000009F451C0C53AFDE5DF0709F453C0C230EA
:102F1000DD4509F055CF80E043C08091D902816042
:102F20008093D9024DCF8091D9028260F9CF8091F0
:102F3000D9028460F5CF8091D9028860F1CF809169
:102F4000DA028260BCCF0E94AC088091D90280680E
:102F5000E7CF8091D902877FE3CF8091DA028E7F1D
:102F6000AECF8091DA028D7FAACF8091D9028F7B7C
:102F7000D7CF0E94AC088091D9028F77D1CF8091B2
:102F8000DA028C7F9CCF8091D90282FB992790F93D
:102F900021E0922790FB82F990FB83F9C1CF81E079
:102FA0000E94820E0DCF9091D902892F8F7E94FFBF
:102FB0008061B6CF9091D902892F8E7F90FF81607A
:102FC000AFCF81E00FCF8B3109F464C040F58B3077
:102FD00071F078F4863009F446C020F4853059F158
:102FE00080E00895873009F447C08830C9F781E050
:102FF0000895803109F45CC068F48E3089F79091AF
:103000000002892F8B7F92FF84608093000282FDF3
:103010004BC0EDCF863159F3893149F3E1CF8A3284
:10302000F9F060F48732B1F020F48E31C8F28D519E
:103030004BC08932A9F60E940004D9CF833440F4F2
:103040008A3308F040C0853329F0883381F2C8CF35
:10305000833431F681E00E94FB080E94AC08C7CFA0
:103060000E94800EC4CF80910002807F8093000276
:1030700081E080931402089590910002892F8E7F41
:1030800090FF81608093000280FDB1CF817F8093AB
:103090000002ADCF90910002892F8D7F91FF826059
:1030A0008093000281FFA3CF809100028160EFCF67
:1030B00090910002892F877F93FF886080930002A0
:1030C00083FDF2CF94CF895391E001C0990F8A9587
:1030D000EAF7892FC0CF80E008950C946B18CF9346
:1030E000C82F809114028130B9F0882331F08230EA
:1030F000A1F11092140280E00DC00E94F50C823202
:10310000D1F78C2F0E946B1881111BC08C2F0E944D
:10311000E3178170CF9108950E94F50C823289F3F4
:103120008C2F0E946D1881110AC0C43199F060F48F
:10313000CB3029F0C03169F782E08093140281E03E
:10314000E8CF81E090E0E5CFC93221F0C833B9F390
:1031500080E0DFCF10921402FBCFC93209F440C0E7
:10316000F0F4C431E9F1A8F481E0C73099F6809316
:103170000B0184E180930A018AE0809309018EE1CA
:103180008093080188E08093050188E28093040120
:1031900004C082EE8C0F8A3070F181E0BBCFC03565
:1031A00009F450C0B8F48AE0CF34B9F7E0911102C5
:1031B000F0911202309789F32081082E000C990BB0
:1031C000820F911D8F3F910509F00CF43FC08FEFE6
:1031D0008083E3CFC135C1F181E0C23539F39ACFA5
:1031E000809113028823C9F21092130210921202E6
:1031F00010921102D2CFCD51C0931302C330C9F047
:1032000048F4C13099F08AE091E0C23051F0109258
:103210001302C3CFC53099F078F084E091E0C63056
:10322000B1F79093120280931102B7CF8BE091E037
:10323000F8CF89E091E0F5CF88E091E0F2CF85E02A
:1032400091E0EFCF86EFB2CF8FEFB0CF97FFC0CF37
:103250001082A3CF84E0089550E0440F551F98E1F9
:10326000699F400D511D112490E6899F400D511D0D
:103270001124CA01879608950F931F93CF93DF936C
:103280000E942C198C010E94ED20C82FD0E0DC2F69
:10329000CC27C80101960E94ED209E01282BC90170
:1032A000DF91CF911F910F9108950F931F93CF93AB
:1032B000DF93122F032F0E942C19EC01602F0E9424
:1032C000FB20612FCE010196DF91CF911F910F91CD
:1032D0000C94FB20AF92BF92CF92DF92EF92FF92BD
:1032E0001F93CF93DF9388E6C82E80E0D82ED0E0DE
:1032F0007601C0E014C0F50125913491412F6C2F67
:103300008D2F0E94551982E0A80EB11C1F5F1C3042
:1033100091F788E1E80EF11CCF5FC43019F0570136
:1033200010E0E9CFDF5F80E6C80ED11CD43001F792
:10333000DF91CF911F91FF90EF90DF90CF90BF90E2
:10334000AF900895EF92FF920F931F93CF93DF9367
:10335000EC018A017C01E60EF71ECE018796CE15A0
:10336000DF0539F4DF91CF911F910F91FF90EF901E
:103370000895C03821E0D20740F40E94ED20F80102
:1033800080830F5F1F4F2196E8CFF8011082F9CF9D
:10339000CF92DF92EF92FF920F931F93CF93DF9321
:1033A0007C016A018C01060F171FEC01CE01879684
:1033B000C017D10749F4DF91CF911F910F91FF9072
:1033C000EF90DF90CF900895C03821E0D20740F40D
:1033D000FE01EE19FF09EC0DFD1D60810E94FB202E
:1033E0002196E4CF462F843038F4743028F46C30C2
:1033F00018F4672F0C943C1990E080E0089580E168
:10340000089589E592E00895EF92FF920F931F933C
:10341000CF93DF93EC018A017C01E60EF71ECE010B
:1034200089559E4FCE15DF0539F4DF91CF911F915D
:103430000F91FF90EF900895C93522E0D20740F434
:103440000E94ED20F80180830F5F1F4F2196E7CF88
:10345000F8011082F9CFCF92DF92EF92FF920F9393
:103460001F93CF93DF937C016A018C01060F171F16
:10347000EC01CE0189559E4FC017D10749F4DF9169
:10348000CF911F910F91FF90EF90DF90CF90089513
:10349000C93522E0D20740F4FE01EE19FF09EC0D18
:1034A000FD1D60810E94FB202196E3CFCF93DF9327
:1034B000C7EAD1E060E0CE010E94FB202196C11551
:1034C00084E0D807B9F7DF91CF910895DF92EF92AA
:1034D000FF920F931F93CF93DF9300D000D0CDB70F
:1034E000DEB7F82E8FE08F1540F08FEF93E00E944B
:1034F000ED2007EA11E08823C1F00F900F900F90A4
:103500000F90DF91CF911F910F91FF90EF90DF907F
:103510000895011584E0180781F3C8010E94ED2089
:10352000811101C0FA940F5F1F4FF110F2CF198281
:103530001A821B821C82DD24D39478018FEFE81A53
:10354000F80AC8010E94ED2089831A828823A9F213
:103550009FEF980F933078F48A83D9820E5F1F4FC4
:10356000C7010E94ED208B83882339F2CE0101969A
:103570000E943D05E2CF8701F9CFCF93DF93EB01A6
:1035800086319C4511F50E94F50C9A81992399F09A
:103590008A7A91E009F490E090931502811109C0B4
:1035A00089E20E94D00C0E94350D80E0DF91CF911E
:1035B000089585E3F6CF80911502811104C089E258
:1035C0000E94D70CF0CF85E3FBCF81E0EFCF0F93C4
:1035D0001F93CF93DF93C42FD22FFC0182818823C6
:1035E000C9F0409318020E94D01C90931702809358
:1035F000160280E28C0F883008F050C0C77081E05E
:1036000001C0880FCA95EAF7DF91CF911F910F9102
:103610000C94460610911802141335C080911602BE
:10362000909117020E94E81C883C910560F5C0E269
:10363000CD0F1D17B9F080E2810F883040F417706C
:1036400081E001C0880F1A95EAF70E944D06C83044
:1036500048F481E09D2F977001C0880F9A95EAF792
:103660000E944606802F0E943E06C830B8F4D770EC
:1036700081E001C0880FDA95EAF7DF91CF911F91C1
:103680000F910C944D0680E28C0F883038F4C7708F
:1036900081E001C0880FCA95EAF7EFCFDF91CF91A3
:1036A0001F910F9108950F939C01CB01233F4CE58F
:1036B000340759F1A8F4283DFCE53F0701F1293D05
:1036C0004CE53407D1F1273D3C4591F406E221EE6B
:1036D00041EE67ED7CE50E94E71A80E00F910895C6
:1036E000253FFCE53F07E9F0B0F0263F3C45F9F007
:1036F000FC018281882339F110921802EFCF07E292
:1037000025EE45EE68ED7CE5E6CF06E221EE40EEE3
:1037100063EF7CE5E0CF07E225EE44EE64EF7CE565
:10372000DACF06E221EE42EE65EF7CE5D4CF07E288
:1037300025EE46EE66EF7CE5CECF08E221E045EED1
:1037400069ED7CE5C8CF81E0C9CF90938D0180936E
:103750008C01089590931E0280931D020895E091BC
:103760001D02F0911E02309721F00190F081E02DB2
:10377000099480E00895E0911D02F0911E023097B7
:1037800021F00280F381E02D09940895E0911D025B
:10379000F0911E02309739F022E0DC012C93048076
:1037A000F581E02D0994089520911B0230911C02AF
:1037B0002817390771F090931C0280931B02E09147
:1037C0001D02F0911E02309721F00680F781E02D56
:1037D000099408952091190230911A022817390787
:1037E00071F090931A0280931902E0911D02F091FA
:1037F0001E02309721F00084F185E02D0994089590
:103800009C012E5F3F4FAC01485F5F4F80E0241763
:10381000350709F40895F90191919F019923B9F3AE
:103820008F5FF5CF662349F0FC013296089621910F
:10383000261729F0E817F907D1F780E0089581E00D
:1038400008959C01FC0132969FEF80E0419146175C
:1038500051F09F3F19F4411101C0982F8F5F8630BE
:10386000A9F79F3F09F40895290F311D97FD3A9557
:10387000F90162830895FC0132960896219126137E
:1038800003C0DF0111971C92E817F907B9F70895F3
:103890000C94211C0C943B1C029626E0FC01119216
:1038A0002A95E9F70895089508950C94541C0895F5
:1038B00008950C94531CCF930E94571C0E943C12F5
:1038C0000E94581CC0E08C2F0E947211892B31F489
:1038D000CF5FC430C1F780E0CF91089581E0FCCF85
:1038E00008951F921FB61F9211248F939F93AF9339
:1038F000BF9380911F02811113C08091EB029091C0
:10390000EC02A091ED02B091EE024196A11DB11D15
:103910008093EB029093EC02A093ED02B093EE0241
:10392000BF91AF919F918F911F901FBE1F901895CF
:1039300080912202882331F10E94670410921F02B5
:1039400088E190E020E40FB6F894A8958093600099
:103950000FBE2093600083B7817F846083BF83B7ED
:10396000816083BF7894889583B78E7F83BF0FB6BD
:10397000F894A8958091600088618093600010920F
:1039800060000FBE08950E94AC080C946B0482E0A6
:1039900084BD93E095BD9AEF97BD80936E00089526
:1039A0002FB7F8948091EB029091EC02A091ED0278
:1039B000B091EE022FBF08952FB7F8946091EB02FB
:1039C0007091EC028091ED029091EE022FBF08956C
:1039D0009C014FB7F8948091EB029091EC02A0917A
:1039E000ED02B091EE024FBF821B930B08957894C5
:1039F0001F921FB61F9211248F939F93AF93BF9373
:103A00008091EB029091EC02A091ED02B091EE0258
:103A10000196A11DB11D8093EB029093EC02A0933F
:103A2000ED02B093EE02BF91AF919F918F911F90E5
:103A30001FBE1F90189588E198E00FB6F894A895DE
:103A4000809360000FBE90936000A895F894D8E032
:103A5000CEEF28E3299320E0299314BEFFCF0895E9
:103A60000E94D01C909321028093200280E890E075
:103A70000FB6F89480936100909361000FBE089593
:103A80000E949020539A80E0815019F453987894C2
:103A90000895A895EFE9FFE03197F1F700C0000025
:103AA000F3CF0E948C1E0E94AA1B2FEF80E792E0AA
:103AB000215080409040E1F700C0000008958091BF
:103AC0001603882369F1109216030E94D01C90936C
:103AD00021028093200280912202882341F01092DB
:103AE00022020E94C31C8091220281111DC00E94EB
:103AF000A01F80911C03882329F08091FA0284FD85
:103B00000E94590F0E94F91D0E94A01F80911C0362
:103B10008823C9F18091330384FF35C00C94801E43
:103B200080912202882301F10E94981C0E945B1C54
:103B3000882349F1F8942AB15B9A822F8C608AB964
:103B40009BB13CE093279BB94FE788E391E041505C
:103B500080409040E1F700C000008BB183278BB913
:103B60002AB95B987894089580912002909121025F
:103B70000E94E81C069708F4B6CF81E080932202E9
:103B80000E94981CB0CF08958091D802089508959E
:103B900090912802981307C02091260230912702A5
:103BA00026173707A9F080932802709327026093A5
:103BB0002602809323027093250260932402809151
:103BC000330384FF05C063E083E292E00C94981F06
:103BD0000895BC0184E00C94C81DBC0183E00C94E2
:103BE000C81D2091330324FF03C066E00C94981F86
:103BF0000895CF93DF93CAE0D0E08091FA0284FF6A
:103C00001AC08091550290915602981789F028E0C9
:103C1000829FC001112468E0895A9D4F0E94941F21
:103C20008091550290E001968F70992780935502FC
:103C3000DF91CF9108950E94A01F8FE99FE0019727
:103C4000F1F700C000002197C1F6F2CFCF93DF93C8
:103C5000EC01A0915602B0E0CD0101968F7099273A
:103C600020915502281779F093E0AA0FBB1F9A956F
:103C7000E1F7A95ABD4F98E0FE0101900D929A9587
:103C8000E1F7809356020E94A01F0E94F91D88E070
:103C9000FE01ADE4B2E001900D928A95E1F7DF916B
:103CA000CF9108950F931F93CF93DF93EC01603270
:103CB00011F58C01005E1F4F02C00E94A01F809171
:103CC000060384FFFACF68E0CE010E949C1F28966D
:103CD000C017D107A1F78091060384FF09C060E0F7
:103CE00090E080E0DF91CF911F910F910C949C1F89
:103CF0000E94A01FF0CFDF91CF911F910F910895E7
:103D000080912C02803239F460E28DE292E00E94D0
:103D1000F21510922C0208958CE091E00895FC01B8
:103D2000808180768032F1F48181813061F48481F8
:103D30009581892BB9F48DE492E0909318038093D8
:103D4000170388E00895823041F487ED92E0909364
:103D500018038093170381E008958A3029F4838142
:103D60008093D70280E008958930E1F782819381C2
:103D70008115924069F484819581892B49F481E011
:103D800080932B028681978190932A028093290247
:103D90008FEF0895FC018091290290912A02892BCE
:103DA00061F080912B02813041F490819093D80290
:103DB00010922A021092290208958FEF0895683018
:103DC00019F010922C02089520912C022931C8F785
:103DD000FC01A22FB0E0A35DBD4F089631913D9349
:103DE000E817F907D9F7285F20932C020895FC0102
:103DF0008381833089F130F48130F1F0823021F118
:103E000080E00895813209F441C08232C9F72481EB
:103E100035812130310509F457C02115310509F4E8
:103E20004BC02230310561F789E593E09093180388
:103E3000809317038BE7089583EF92E09093180324
:103E40008093170382E1089588E992E09093180324
:103E5000809317038BE5089582818130A1F0882338
:103E600051F0823069F685E093E0909318038093D7
:103E7000170388E1089583E393E0909318038093F8
:103E8000170384E008958FE193E0D8CF82818130D9
:103E900081F0882331F0823009F0B2CF83EE92E0D6
:103EA00002C08AEA92E0909318038093170389E096
:103EB000089583EC92E0F7CF84ED93E0909318039C
:103EC0008093170380E4089527E333E030931803C9
:103ED0002093170308951F93CF93DF93E82F792F33
:103EE000162FEA01888184FF1CC0298188E82827D1
:103EF0002983CE010296DC012E2F372F512F5E0F22
:103F0000F90121912D939F01452F4E1B1416C4F3E7
:103F1000612F0E943E021C5F1883DF91CF911F9199
:103F200008958AE58883E5CF4AEF52E00C946B1F31
:103F300043E353E00C946B1F46E053E00C946B1F7B
:103F4000CF93DF9360911903635067FD12C0809196
:103F50001503CCE0D0E0C81BD109C35EDC4F8091D3
:103F60001403803108F054C0CE010E94DF1E10926D
:103F700019038091190184FF3EC0809118018F3F81
:103F8000D1F1C82F893008F0C8E0982F9C1B90937E
:103F900018019091EF0228E892279093EF0288236E
:103FA000E9F080911703909118032091130326FFE5
:103FB000AEC0FC012C2FA0EFB2E034913D933196BE
:103FC0002150D9F79C012F5F3F4F8FEF8C0F820F4D
:103FD000932F911D90931803809317036C2F80EFFC
:103FE00092E00E943E02CC5FCC3019F08FEF8093BC
:103FF0001801C093190184E199B19C7031F481508A
:10400000D9F710921A0310921203DF91CF910895FD
:104010008D3209F069C0683009F0A9CF83EC809334
:10402000EF028AE58093190110921303888180764C
:1040300071F0CE010E948F1E8F3FC1F4988197FDD1
:104040008E8190E8909313038093180190CF2A817A
:104050001092F8029981911111C01092F90228EF83
:1040600032E082E030931803209317039F8191116F
:10407000EBCF9E81981740F7892FE6CF953029F432
:1040800020931A0328EF32E0EDCF963099F49B810C
:10409000913021F4CE010E94F71E08C09230D1F376
:1040A0009330C1F39132B1F39232A1F390E4909343
:1040B0001303C2CF983089F0993019F420931C0370
:1040C000E1CF9A3071F09B30E9F69BE49093FB02CC
:1040D0009093340390930703D5CF2CE133E081E034
:1040E000C1CF28EF32E0FBCF8091130387FF3FCF92
:1040F000CE010E94CA1E8F3F21F48EE180931901E8
:1041000036CF882309F433CF1092180130CFDC0169
:104110002C2FE0EFF2E03D9131932150E1F752CFA7
:10412000CF93DF93E9E6F0E0808188608083E99AAD
:10413000CAEFD2E08BE48983A3E3B3E011968C93BA
:104140001197E6E0F3E081838AE588838C9380838E
:10415000DF91CF91089597FB072E16F4009407D0B6
:1041600077FD09D00E94CC2007FC05D03EF4909545
:1041700081959F4F0895709561957F4F0895EE0F3B
:10418000FF1F0590F491E02D099469279627692770
:104190007827872778270895AA1BBB1B51E107C002
:1041A000AA1FBB1FA617B70710F0A61BB70B881FC7
:1041B000991F5A95A9F780959095BC01CD01089556
:1041C000FB01DC0104C08D910190801921F4415064
:1041D0005040C8F7881B990B0895F999FECF92BDFE
:1041E00081BDF89A992780B50895A8E1B0E042E032
:1041F00050E00C942121262FF999FECF92BD81BD6C
:10420000F89A019700B4021639F01FBA20BD0FB614
:10421000F894FA9AF99A0FBE08950396272F0E94F0
:10422000FC200E94FB20252F0E94FC20242F0C94B0
:10423000FC200196272F0E94FC200C94FB20DC011F
:10424000CB01FC01F999FECF06C0F2BDE1BDF89AA1
:10425000319600B40D9241505040B8F70895F8944B
:10426000FFCF92069206C306C30656077207F206F0
:10427000F2067D07E407F307F30704161116381654
:1042800044164F165A165D165D165D165D165D16C0
:10429000601664166C167916861689168C16991691
:1042A000C800E601280850011E0A1401C41D261E7C
:1042B000F11DED1DE91DC71DFF5AE200E900EA00EE
:1042C000B500B600B700CD008301CC008A01920191
:1042D00094012102230224022502260227022A0237
:1042E000B300B4006F007000818283E200E900EA4D
:1042F00000B500B600B700CD008301CC008A019262
:104300000194012102230224022502260227022A07
:1043100002B300B4006F0070008182839065346343
:0C432000626160323130979691943564F0
:00000001FF
